{"abi":[{"type":"constructor","inputs":[{"name":"_dep20Usdt","type":"address","internalType":"address"},{"name":"_bridgeRelayer","type":"address","internalType":"address"}],"stateMutability":"nonpayable"},{"type":"function","name":"DEP20_USDT","inputs":[],"outputs":[{"name":"","type":"address","internalType":"contract IERC20"}],"stateMutability":"view"},{"type":"function","name":"MAX_ORDER_AMOUNT","inputs":[],"outputs":[{"name":"","type":"uint256","internalType":"uint256"}],"stateMutability":"view"},{"type":"function","name":"MIN_ORDER_AMOUNT","inputs":[],"outputs":[{"name":"","type":"uint256","internalType":"uint256"}],"stateMutability":"view"},{"type":"function","name":"ORDER_EXPIRY_TIME","inputs":[],"outputs":[{"name":"","type":"uint256","internalType":"uint256"}],"stateMutability":"view"},{"type":"function","name":"acceptOwnership","inputs":[],"outputs":[],"stateMutability":"nonpayable"},{"type":"function","name":"batchCompleteFillOrders","inputs":[{"name":"dscOrderIds","type":"uint256[]","internalType":"uint256[]"},{"name":"bscTxHashes","type":"bytes32[]","internalType":"bytes32[]"}],"outputs":[],"stateMutability":"nonpayable"},{"type":"function","name":"bridgeRelayer","inputs":[],"outputs":[{"name":"","type":"address","internalType":"address"}],"stateMutability":"view"},{"type":"function","name":"cancelOrder","inputs":[{"name":"orderId","type":"uint256","internalType":"uint256"}],"outputs":[],"stateMutability":"nonpayable"},{"type":"function","name":"completeFillOrder","inputs":[{"name":"dscOrderId","type":"uint256","internalType":"uint256"},{"name":"bscTxHash","type":"bytes32","internalType":"bytes32"}],"outputs":[],"stateMutability":"nonpayable"},{"type":"function","name":"createSellOrder","inputs":[{"name":"amount","type":"uint256","internalType":"uint256"}],"outputs":[{"name":"orderId","type":"uint256","internalType":"uint256"}],"stateMutability":"nonpayable"},{"type":"function","name":"fillAndRelease","inputs":[{"name":"dscOrderId","type":"uint256","internalType":"uint256"},{"name":"bscOrderId","type":"uint256","internalType":"uint256"},{"name":"buyer","type":"address","internalType":"address"},{"name":"amount","type":"uint256","internalType":"uint256"},{"name":"bscTxHash","type":"bytes32","internalType":"bytes32"}],"outputs":[],"stateMutability":"nonpayable"},{"type":"function","name":"fillBscBuyOrder","inputs":[{"name":"bscOrderId","type":"uint256","internalType":"uint256"},{"name":"bscBuyer","type":"address","internalType":"address"},{"name":"amount","type":"uint256","internalType":"uint256"}],"outputs":[{"name":"orderId","type":"uint256","internalType":"uint256"}],"stateMutability":"nonpayable"},{"type":"function","name":"getDscOrderForBscOrder","inputs":[{"name":"bscOrderId","type":"uint256","internalType":"uint256"}],"outputs":[{"name":"","type":"uint256","internalType":"uint256"}],"stateMutability":"view"},{"type":"function","name":"getOpenSellOrders","inputs":[{"name":"offset","type":"uint256","internalType":"uint256"},{"name":"limit","type":"uint256","internalType":"uint256"}],"outputs":[{"name":"orderIds","type":"uint256[]","internalType":"uint256[]"},{"name":"users","type":"address[]","internalType":"address[]"},{"name":"amounts","type":"uint256[]","internalType":"uint256[]"},{"name":"remainingAmounts","type":"uint256[]","internalType":"uint256[]"},{"name":"expiresAts","type":"uint256[]","internalType":"uint256[]"}],"stateMutability":"view"},{"type":"function","name":"getOrder","inputs":[{"name":"orderId","type":"uint256","internalType":"uint256"}],"outputs":[{"name":"user","type":"address","internalType":"address"},{"name":"status","type":"uint8","internalType":"enum P2PVaultDSCv2.OrderStatus"},{"name":"orderType","type":"uint8","internalType":"enum P2PVaultDSCv2.OrderType"},{"name":"amount","type":"uint256","internalType":"uint256"},{"name":"filledAmount","type":"uint256","internalType":"uint256"},{"name":"expiresAt","type":"uint256","internalType":"uint256"}],"stateMutability":"view"},{"type":"function","name":"getOrderCount","inputs":[],"outputs":[{"name":"","type":"uint256","internalType":"uint256"}],"stateMutability":"view"},{"type":"function","name":"getOrderDetails","inputs":[{"name":"orderId","type":"uint256","internalType":"uint256"}],"outputs":[{"name":"remainingAmount","type":"uint256","internalType":"uint256"},{"name":"createdAt","type":"uint256","internalType":"uint256"},{"name":"linkedBscOrderId","type":"uint256","internalType":"uint256"},{"name":"linkedBscBuyer","type":"address","internalType":"address"},{"name":"fillCount","type":"uint256","internalType":"uint256"}],"stateMutability":"view"},{"type":"function","name":"getOrderFills","inputs":[{"name":"orderId","type":"uint256","internalType":"uint256"}],"outputs":[{"name":"","type":"tuple[]","internalType":"struct P2PVaultDSCv2.Fill[]","components":[{"name":"bscOrderId","type":"uint256","internalType":"uint256"},{"name":"counterparty","type":"address","internalType":"address"},{"name":"amount","type":"uint256","internalType":"uint256"},{"name":"timestamp","type":"uint256","internalType":"uint256"},{"name":"bscTxHash","type":"bytes32","internalType":"bytes32"}]}],"stateMutability":"view"},{"type":"function","name":"getPendingFillOrders","inputs":[{"name":"offset","type":"uint256","internalType":"uint256"},{"name":"limit","type":"uint256","internalType":"uint256"}],"outputs":[{"name":"orderIds","type":"uint256[]","internalType":"uint256[]"},{"name":"sellers","type":"address[]","internalType":"address[]"},{"name":"buyers","type":"address[]","internalType":"address[]"},{"name":"amounts","type":"uint256[]","internalType":"uint256[]"},{"name":"bscOrderIds","type":"uint256[]","internalType":"uint256[]"}],"stateMutability":"view"},{"type":"function","name":"getUserLockedAmount","inputs":[{"name":"user","type":"address","internalType":"address"}],"outputs":[{"name":"","type":"uint256","internalType":"uint256"}],"stateMutability":"view"},{"type":"function","name":"getUserOrderIds","inputs":[{"name":"user","type":"address","internalType":"address"}],"outputs":[{"name":"","type":"uint256[]","internalType":"uint256[]"}],"stateMutability":"view"},{"type":"function","name":"owner","inputs":[],"outputs":[{"name":"","type":"address","internalType":"address"}],"stateMutability":"view"},{"type":"function","name":"pause","inputs":[],"outputs":[],"stateMutability":"nonpayable"},{"type":"function","name":"paused","inputs":[],"outputs":[{"name":"","type":"bool","internalType":"bool"}],"stateMutability":"view"},{"type":"function","name":"pendingOwner","inputs":[],"outputs":[{"name":"","type":"address","internalType":"address"}],"stateMutability":"view"},{"type":"function","name":"renounceOwnership","inputs":[],"outputs":[],"stateMutability":"nonpayable"},{"type":"function","name":"rescueTokens","inputs":[{"name":"token","type":"address","internalType":"address"},{"name":"to","type":"address","internalType":"address"},{"name":"amount","type":"uint256","internalType":"uint256"}],"outputs":[],"stateMutability":"nonpayable"},{"type":"function","name":"setBridgeRelayer","inputs":[{"name":"newRelayer","type":"address","internalType":"address"}],"outputs":[],"stateMutability":"nonpayable"},{"type":"function","name":"totalLocked","inputs":[],"outputs":[{"name":"","type":"uint256","internalType":"uint256"}],"stateMutability":"view"},{"type":"function","name":"transferOwnership","inputs":[{"name":"newOwner","type":"address","internalType":"address"}],"outputs":[],"stateMutability":"nonpayable"},{"type":"function","name":"unpause","inputs":[],"outputs":[],"stateMutability":"nonpayable"},{"type":"event","name":"FundsReleased","inputs":[{"name":"dscOrderId","type":"uint256","indexed":true,"internalType":"uint256"},{"name":"recipient","type":"address","indexed":true,"internalType":"address"},{"name":"amount","type":"uint256","indexed":false,"internalType":"uint256"},{"name":"bscTxHash","type":"bytes32","indexed":false,"internalType":"bytes32"}],"anonymous":false},{"type":"event","name":"OrderCancelled","inputs":[{"name":"orderId","type":"uint256","indexed":true,"internalType":"uint256"},{"name":"user","type":"address","indexed":true,"internalType":"address"},{"name":"refundAmount","type":"uint256","indexed":false,"internalType":"uint256"}],"anonymous":false},{"type":"event","name":"OrderCompleted","inputs":[{"name":"orderId","type":"uint256","indexed":true,"internalType":"uint256"},{"name":"user","type":"address","indexed":true,"internalType":"address"},{"name":"totalAmount","type":"uint256","indexed":false,"internalType":"uint256"},{"name":"fillCount","type":"uint256","indexed":false,"internalType":"uint256"}],"anonymous":false},{"type":"event","name":"OrderCreated","inputs":[{"name":"orderId","type":"uint256","indexed":true,"internalType":"uint256"},{"name":"user","type":"address","indexed":true,"internalType":"address"},{"name":"orderType","type":"uint8","indexed":false,"internalType":"enum P2PVaultDSCv2.OrderType"},{"name":"amount","type":"uint256","indexed":false,"internalType":"uint256"},{"name":"linkedBscOrderId","type":"uint256","indexed":false,"internalType":"uint256"},{"name":"expiresAt","type":"uint256","indexed":false,"internalType":"uint256"}],"anonymous":false},{"type":"event","name":"OrderFilled","inputs":[{"name":"dscOrderId","type":"uint256","indexed":true,"internalType":"uint256"},{"name":"bscOrderId","type":"uint256","indexed":true,"internalType":"uint256"},{"name":"recipient","type":"address","indexed":true,"internalType":"address"},{"name":"amount","type":"uint256","indexed":false,"internalType":"uint256"},{"name":"isPartial","type":"bool","indexed":false,"internalType":"bool"}],"anonymous":false},{"type":"event","name":"OwnershipTransferStarted","inputs":[{"name":"previousOwner","type":"address","indexed":true,"internalType":"address"},{"name":"newOwner","type":"address","indexed":true,"internalType":"address"}],"anonymous":false},{"type":"event","name":"OwnershipTransferred","inputs":[{"name":"previousOwner","type":"address","indexed":true,"internalType":"address"},{"name":"newOwner","type":"address","indexed":true,"internalType":"address"}],"anonymous":false},{"type":"event","name":"Paused","inputs":[{"name":"account","type":"address","indexed":false,"internalType":"address"}],"anonymous":false},{"type":"event","name":"Unpaused","inputs":[{"name":"account","type":"address","indexed":false,"internalType":"address"}],"anonymous":false},{"type":"error","name":"AmountTooLarge","inputs":[]},{"type":"error","name":"AmountTooSmall","inputs":[]},{"type":"error","name":"BscOrderAlreadyLinked","inputs":[]},{"type":"error","name":"EnforcedPause","inputs":[]},{"type":"error","name":"ExpectedPause","inputs":[]},{"type":"error","name":"FillAmountExceedsRemaining","inputs":[]},{"type":"error","name":"InsufficientBalance","inputs":[]},{"type":"error","name":"InvalidBscOrderId","inputs":[]},{"type":"error","name":"InvalidOrderStatus","inputs":[]},{"type":"error","name":"NotAuthorized","inputs":[]},{"type":"error","name":"NotOrderOwner","inputs":[]},{"type":"error","name":"OrderExpired","inputs":[]},{"type":"error","name":"OrderNotFound","inputs":[]},{"type":"error","name":"OwnableInvalidOwner","inputs":[{"name":"owner","type":"address","internalType":"address"}]},{"type":"error","name":"OwnableUnauthorizedAccount","inputs":[{"name":"account","type":"address","internalType":"address"}]},{"type":"error","name":"ReentrancyGuardReentrantCall","inputs":[]},{"type":"error","name":"SafeERC20FailedOperation","inputs":[{"name":"token","type":"address","internalType":"address"}]},{"type":"error","name":"ZeroAddress","inputs":[]},{"type":"error","name":"ZeroAmount","inputs":[]}],"bytecode":{"object":"0x60a06040523480156200001157600080fd5b5060405162002fbb38038062002fbb833981016040819052620000349162000185565b60017f9b779b17422d0df92223018b32b4d1fa46e071723d6817e2486d003becc55f005533806200007f57604051631e4fbdf760e01b81526000600482015260240160405180910390fd5b6200008a81620000f1565b506001600160a01b0382161580620000a957506001600160a01b038116155b15620000c85760405163d92e233d60e01b815260040160405180910390fd5b6001600160a01b03918216608052600480546001600160a01b03191691909216179055620001bd565b600180546001600160a01b03191690556200010c816200010f565b50565b600080546001600160a01b03838116610100818102610100600160a81b0319851617855560405193049190911692909183917f8be0079c531659141344cd1fd0a4f28419497f9722a3daafe3b4186f6b6457e091a35050565b80516001600160a01b03811681146200018057600080fd5b919050565b600080604083850312156200019957600080fd5b620001a48362000168565b9150620001b46020840162000168565b90509250929050565b608051612daa6200021160003960008181610204015281816105fc0152818161084a01528181610a8a01528181610be901528181610e5f015281816116ef01528181611c7601526126180152612daa6000f3fe608060405234801561001057600080fd5b50600436106101e55760003560e01c80638d0a5fbb1161010f578063cea9d26f116100a2578063e30c397811610071578063e30c397814610485578063ec641a1d14610496578063ec7dd7bb146104b6578063f2fde38b146104fa57600080fd5b8063cea9d26f146103d6578063d09ef241146103e9578063d80536651461044e578063d88434581461046157600080fd5b8063a4d876a9116100de578063a4d876a914610367578063ae36935d1461037a578063afea4bb2146103a3578063b911d64b146103b657600080fd5b80638d0a5fbb1461032e5780638da5cb5b1461033657806395c3c6ed1461034c5780639c3619cf1461035657600080fd5b8063594223b81161018757806379ba50971161015657806379ba5097146102eb5780637f6577b6146102f35780638456cb59146103065780638b024fbe1461030e57600080fd5b8063594223b8146102965780635c975abb146102a95780635f15ff09146102bf578063715018a6146102e357600080fd5b80633f4ba83a116101c35780633f4ba83a1461026457806340bf2aa41461026c578063514fcac71461027a578063568914121461028d57600080fd5b806320d153b5146101ea5780633028139f146101ff5780633c81c4b814610243575b600080fd5b6101fd6101f83660046128b7565b61050d565b005b6102267f000000000000000000000000000000000000000000000000000000000000000081565b6040516001600160a01b0390911681526020015b60405180910390f35b6102566102513660046128d2565b61055e565b60405190815260200161023a565b6101fd6108db565b61025666038d7ea4c6800081565b6101fd6102883660046128d2565b6108ed565b61025660035481565b6102566102a43660046128eb565b610b04565b60005460ff16604051901515815260200161023a565b6102d26102cd366004612920565b610ef2565b60405161023a9594939291906129b6565b6101fd611319565b6101fd61132b565b600454610226906001600160a01b031681565b6101fd611371565b61025661031c3660046128d2565b60009081526009602052604090205490565b600254610256565b60005461010090046001600160a01b0316610226565b6102566201518081565b61025669d3c21bcecceda100000081565b6101fd610375366004612a23565b611381565b6102566103883660046128b7565b6001600160a01b031660009081526008602052604090205490565b6101fd6103b1366004612ab6565b611829565b6103c96103c43660046128d2565b611918565b60405161023a9190612b22565b6101fd6103e4366004612b99565b6119bf565b61043c6103f73660046128d2565b60009081526005602052604090208054600182015460028301546004909301546001600160a01b0383169460ff600160a01b8504811695600160a81b90950416939190565b60405161023a96959493929190612bef565b6101fd61045c366004612920565b611a1b565b61047461046f366004612920565b611d91565b60405161023a959493929190612c3f565b6001546001600160a01b0316610226565b6104a96104a43660046128b7565b61215e565b60405161023a9190612c78565b6104c96104c43660046128d2565b6121ca565b604080519586526020860194909452928401919091526001600160a01b03166060830152608082015260a00161023a565b6101fd6105083660046128b7565b61222f565b6105156122a6565b6001600160a01b03811661053c5760405163d92e233d60e01b815260040160405180910390fd5b600480546001600160a01b0319166001600160a01b0392909216919091179055565b60006105686122d9565b6105706122f5565b818060000361059257604051631f2a200560e01b815260040160405180910390fd5b66038d7ea4c680008110156105ba5760405163617ab12d60e11b815260040160405180910390fd5b69d3c21bcecceda10000008111156105e557604051630625040160e01b815260040160405180910390fd5b6040516370a0823160e01b815233600482015283907f00000000000000000000000000000000000000000000000000000000000000006001600160a01b0316906370a0823190602401602060405180830381865afa15801561064b573d6000803e3d6000fd5b505050506040513d601f19601f8201168201806040525081019061066f9190612c8b565b101561068e57604051631e9acf1760e31b815260040160405180910390fd5b60026000815461069d90612cba565b91829055506040805161012081019091523381529092506020810160018152602001600081526020018481526020016000815260200142815260200162015180426106e89190612cd3565b815260006020808301829052604092830182905285825260058152919020825181546001600160a01b03919091166001600160a01b031982168117835592840151919283916001600160a81b03191617600160a01b83600481111561074f5761074f612bc5565b021790555060408201518154829060ff60a81b1916600160a81b83600181111561077b5761077b612bc5565b021790555060608201516001828101919091556080830151600283015560a0830151600383015560c0830151600483015560e0830151600583015561010090920151600690910180546001600160a01b0319166001600160a01b039092169190911790553360008181526007602090815260408083208054958601815583528183209094018690559181526008909152908120805485929061081e908490612cd3565b9250508190555082600360008282546108379190612cd3565b9091555061087290506001600160a01b037f000000000000000000000000000000000000000000000000000000000000000016333086612319565b33827fbca4816edaab33691a6807e1676a051d59ee0cfdaf4854d8a8a4785025b27cfd600086816108a66201518042612cd3565b6040516108b69493929190612cec565b60405180910390a3506108d66001600080516020612d5583398151915255565b919050565b6108e36122a6565b6108eb61234f565b565b6108f56122d9565b6000818152600560205260408120908154600160a01b900460ff16600481111561092157610921612bc5565b0361093f5760405163d36d896560e01b815260040160405180910390fd5b80546001600160a01b0316331461096957604051637b2095ad60e11b815260040160405180910390fd5b60018154600160a01b900460ff16600481111561098857610988612bc5565b141580156109b3575060028154600160a01b900460ff1660048111156109b0576109b0612bc5565b14155b156109d157604051632916ae3360e01b815260040160405180910390fd5b6000816002015482600101546109e79190612d15565b905060008260050154118015610a0f5750600582015460009081526009602052604090205483145b15610a295760058201546000908152600960205260408120555b815460ff60a01b1916600160a21b1782553360009081526008602052604081208054839290610a59908490612d15565b925050819055508060036000828254610a729190612d15565b90915550508015610ab157610ab16001600160a01b037f00000000000000000000000000000000000000000000000000000000000000001633836123a1565b604051818152339084907fc4058ebc534b64ecb27b2d4eaa1904f98997ec18ebe6ada4117593dde89478cc9060200160405180910390a35050610b016001600080516020612d5583398151915255565b50565b6000610b0e6122d9565b610b166122f5565b8180600003610b3857604051631f2a200560e01b815260040160405180910390fd5b66038d7ea4c68000811015610b605760405163617ab12d60e11b815260040160405180910390fd5b69d3c21bcecceda1000000811115610b8b57604051630625040160e01b815260040160405180910390fd5b6001600160a01b038416610bb25760405163d92e233d60e01b815260040160405180910390fd5b84600003610bd2576040516205312760e51b815260040160405180910390fd5b6040516370a0823160e01b815233600482015283907f00000000000000000000000000000000000000000000000000000000000000006001600160a01b0316906370a0823190602401602060405180830381865afa158015610c38573d6000803e3d6000fd5b505050506040513d601f19601f82011682018060405250810190610c5c9190612c8b565b1015610c7b57604051631e9acf1760e31b815260040160405180910390fd5b600260008154610c8a90612cba565b9182905550604080516101208101909152338152909250602081016001815260200160018152602001848152602001600081526020014281526020016201518042610cd59190612cd3565b815260208082018890526001600160a01b03808816604093840152600086815260058352929092208351815493166001600160a01b0319841681178255918401519092909183916001600160a81b03191617600160a01b836004811115610d3e57610d3e612bc5565b021790555060408201518154829060ff60a81b1916600160a81b836001811115610d6a57610d6a612bc5565b021790555060608201516001828101919091556080830151600283015560a0830151600383015560c0830151600483015560e0830151600583015561010090920151600690910180546001600160a01b0319166001600160a01b0390921691909117905533600081815260076020908152604080832080549586018155835281832090940186905591815260089091529081208054859290610e0d908490612cd3565b925050819055508260036000828254610e269190612cd3565b90915550506000858152600960205260408120549003610e525760008581526009602052604090208290555b610e876001600160a01b037f000000000000000000000000000000000000000000000000000000000000000016333086612319565b33827fbca4816edaab33691a6807e1676a051d59ee0cfdaf4854d8a8a4785025b27cfd60018689610ebb6201518042612cd3565b604051610ecb9493929190612cec565b60405180910390a350610eeb6001600080516020612d5583398151915255565b9392505050565b606080808080600060015b6002548111610fb7576000818152600560205260408120908154600160a81b900460ff166001811115610f3257610f32612bc5565b148015610f81575060018154600160a01b900460ff166004811115610f5957610f59612bc5565b1480610f81575060028154600160a01b900460ff166004811115610f7f57610f7f612bc5565b145b8015610f91575080600401544211155b15610fa45782610fa081612cba565b9350505b5080610faf81612cba565b915050610efd565b506000818911610fc75788610fc9565b815b90506000818311610fdb576000610fe5565b610fe58284612d15565b905088811115610ff25750875b8067ffffffffffffffff81111561100b5761100b612d28565b604051908082528060200260200182016040528015611034578160200160208202803683370190505b5097508067ffffffffffffffff81111561105057611050612d28565b604051908082528060200260200182016040528015611079578160200160208202803683370190505b5096508067ffffffffffffffff81111561109557611095612d28565b6040519080825280602002602001820160405280156110be578160200160208202803683370190505b5095508067ffffffffffffffff8111156110da576110da612d28565b604051908082528060200260200182016040528015611103578160200160208202803683370190505b5094508067ffffffffffffffff81111561111f5761111f612d28565b604051908082528060200260200182016040528015611148578160200160208202803683370190505b50935060008060015b600254811115801561116257508383105b15611309576000818152600560205260408120908154600160a81b900460ff16600181111561119357611193612bc5565b1480156111e2575060018154600160a01b900460ff1660048111156111ba576111ba612bc5565b14806111e2575060028154600160a01b900460ff1660048111156111e0576111e0612bc5565b145b80156111f2575080600401544211155b156112f6578d831015611211578261120981612cba565b9350506112f6565b818c858151811061122457611224612d3e565b602090810291909101015280548b516001600160a01b03909116908c908690811061125157611251612d3e565b60200260200101906001600160a01b031690816001600160a01b03168152505080600101548a858151811061128857611288612d3e565b602002602001018181525050806002015481600101546112a89190612d15565b8985815181106112ba576112ba612d3e565b60200260200101818152505080600401548885815181106112dd576112dd612d3e565b6020908102919091010152836112f281612cba565b9450505b508061130181612cba565b915050611151565b5050505050509295509295909350565b6113216122a6565b6108eb60006123d6565b60015433906001600160a01b031681146113685760405163118cdaa760e01b81526001600160a01b03821660048201526024015b60405180910390fd5b610b01816123d6565b6113796122a6565b6108eb6123ef565b6004546001600160a01b031633146113ac5760405163ea8e4eb560e01b815260040160405180910390fd5b6113b46122d9565b81806000036113d657604051631f2a200560e01b815260040160405180910390fd5b66038d7ea4c680008110156113fe5760405163617ab12d60e11b815260040160405180910390fd5b69d3c21bcecceda100000081111561142957604051630625040160e01b815260040160405180910390fd5b6001600160a01b0384166114505760405163d92e233d60e01b815260040160405180910390fd5b6000868152600a6020908152604080832088845290915290205460ff161561148b57604051633b4b742160e01b815260040160405180910390fd5b6000868152600560205260408120908154600160a01b900460ff1660048111156114b7576114b7612bc5565b036114d55760405163d36d896560e01b815260040160405180910390fd5b60018154600160a01b900460ff1660048111156114f4576114f4612bc5565b1415801561151f575060028154600160a01b900460ff16600481111561151c5761151c612bc5565b14155b1561153d57604051632916ae3360e01b815260040160405180910390fd5b8060040154421115611562576040516362b439dd60e11b815260040160405180910390fd5b6000816002015482600101546115789190612d15565b90508085111561159b57604051634198384b60e01b815260040160405180910390fd5b6000888152600a602090815260408083208a84529091528120805460ff191660011790556002830180548792906115d3908490612cd3565b90915550506001820154600283015414806115ef5760026115f2565b60035b8354849060ff60a01b1916600160a01b83600481111561161457611614612bc5565b02179055506000898152600660209081526040808320815160a0810183528c81526001600160a01b038c81168286019081528285018d81524260608501908152608085018e8152865460018082018955978b52898b2096516005909102909601958655925195850180546001600160a01b0319169685169690961790955551600284015592516003830155915160049091015586541683526008909152812080548892906116c3908490612d15565b9250508190555085600360008282546116dc9190612d15565b9091555061171690506001600160a01b037f00000000000000000000000000000000000000000000000000000000000000001688886123a1565b60408051878152821560208201526001600160a01b038916918a918c917f4b5d912a3e63856c653fe1bc95044e8cb68e89e3f5ba1fe7f44e62b16d5fa51f910160405180910390a460408051878152602081018790526001600160a01b038916918b917fece49599def9baf16cc9f5448a9516c8668736c3e7677a4448ffa33a697c52b1910160405180910390a38015611807578254600184015460008b815260066020908152604091829020548251938452908301526001600160a01b03909216918b917fd693e88f654cb1706d5df6a1c088fd6b5f214a456c50611639c7383b48bb1766910160405180910390a35b505050506118226001600080516020612d5583398151915255565b5050505050565b6004546001600160a01b031633146118545760405163ea8e4eb560e01b815260040160405180910390fd5b61185c6122d9565b8281146118a35760405162461bcd60e51b8152602060048201526015602482015274082e4e4c2f240d8cadccee8d040dad2e6dac2e8c6d605b1b604482015260640161135f565b60005b838110156118fa576118e88585838181106118c3576118c3612d3e565b905060200201358484848181106118dc576118dc612d3e565b9050602002013561242c565b806118f281612cba565b9150506118a6565b506119126001600080516020612d5583398151915255565b50505050565b606060066000838152602001908152602001600020805480602002602001604051908101604052809291908181526020016000905b828210156119b45760008481526020908190206040805160a08101825260058602909201805483526001808201546001600160a01b03168486015260028201549284019290925260038101546060840152600401546080830152908352909201910161194d565b505050509050919050565b6119c76122a6565b6001600160a01b03831615806119e457506001600160a01b038216155b15611a025760405163d92e233d60e01b815260040160405180910390fd5b611a166001600160a01b03841683836123a1565b505050565b6004546001600160a01b03163314611a465760405163ea8e4eb560e01b815260040160405180910390fd5b611a4e6122d9565b6000828152600560205260408120908154600160a01b900460ff166004811115611a7a57611a7a612bc5565b03611a985760405163d36d896560e01b815260040160405180910390fd5b60018154600160a81b900460ff166001811115611ab757611ab7612bc5565b14611ad557604051632916ae3360e01b815260040160405180910390fd5b60018154600160a01b900460ff166004811115611af457611af4612bc5565b14611b1257604051632916ae3360e01b815260040160405180910390fd5b60018101546006820154825460058401546001600160a01b0392831692821691600390869060ff60a01b1916600160a01b830217905550838560020181905550600660008881526020019081526020016000206040518060a00160405280838152602001856001600160a01b031681526020018681526020014281526020018881525090806001815401808255809150506001900390600052602060002090600502016000909190919091506000820151816000015560208201518160010160006101000a8154816001600160a01b0302191690836001600160a01b0316021790555060408201518160020155606082015181600301556080820151816004015550508360086000846001600160a01b03166001600160a01b031681526020019081526020016000206000828254611c4a9190612d15565b925050819055508360036000828254611c639190612d15565b90915550611c9d90506001600160a01b037f00000000000000000000000000000000000000000000000000000000000000001684866123a1565b60408051858152600060208201526001600160a01b0385169183918a917f4b5d912a3e63856c653fe1bc95044e8cb68e89e3f5ba1fe7f44e62b16d5fa51f910160405180910390a460408051858152602081018890526001600160a01b0385169189917fece49599def9baf16cc9f5448a9516c8668736c3e7677a4448ffa33a697c52b1910160405180910390a360408051858152600160208201526001600160a01b0384169189917fd693e88f654cb1706d5df6a1c088fd6b5f214a456c50611639c7383b48bb1766910160405180910390a35050505050611d8d6001600080516020612d5583398151915255565b5050565b606080808080600060015b6002548111611e3157600081815260056020526040902060018154600160a81b900460ff166001811115611dd257611dd2612bc5565b148015611dfb575060018154600160a01b900460ff166004811115611df957611df9612bc5565b145b8015611e0b575080600401544211155b15611e1e5782611e1a81612cba565b9350505b5080611e2981612cba565b915050611d9c565b506000818911611e415788611e43565b815b90506000818311611e55576000611e5f565b611e5f8284612d15565b905088811115611e6c5750875b8067ffffffffffffffff811115611e8557611e85612d28565b604051908082528060200260200182016040528015611eae578160200160208202803683370190505b5097508067ffffffffffffffff811115611eca57611eca612d28565b604051908082528060200260200182016040528015611ef3578160200160208202803683370190505b5096508067ffffffffffffffff811115611f0f57611f0f612d28565b604051908082528060200260200182016040528015611f38578160200160208202803683370190505b5095508067ffffffffffffffff811115611f5457611f54612d28565b604051908082528060200260200182016040528015611f7d578160200160208202803683370190505b5094508067ffffffffffffffff811115611f9957611f99612d28565b604051908082528060200260200182016040528015611fc2578160200160208202803683370190505b50935060008060015b6002548111158015611fdc57508383105b1561130957600081815260056020526040902060018154600160a81b900460ff16600181111561200e5761200e612bc5565b148015612037575060018154600160a01b900460ff16600481111561203557612035612bc5565b145b8015612047575080600401544211155b1561214b578d831015612066578261205e81612cba565b93505061214b565b818c858151811061207957612079612d3e565b602090810291909101015280548b516001600160a01b03909116908c90869081106120a6576120a6612d3e565b6001600160a01b03928316602091820292909201015260068201548b519116908b90869081106120d8576120d8612d3e565b60200260200101906001600160a01b031690816001600160a01b031681525050806001015489858151811061210f5761210f612d3e565b602002602001018181525050806005015488858151811061213257612132612d3e565b60209081029190910101528361214781612cba565b9450505b508061215681612cba565b915050611fcb565b6001600160a01b0381166000908152600760209081526040918290208054835181840281018401909452808452606093928301828280156121be57602002820191906000526020600020905b8154815260200190600101908083116121aa575b50505050509050919050565b6000818152600560205260408120600281015460018201548392839283928392916121f491612d15565b6003820154600583015460069384015460009a8b526020949094526040909920549199909897506001600160a01b0390921695509350915050565b6122376122a6565b600180546001600160a01b0383166001600160a01b0319909116811790915561226e6000546001600160a01b036101009091041690565b6001600160a01b03167f38d16b8cac22d99fc7c124b9cd0de2d3fa1faef420bfe791d8c362d765e2270060405160405180910390a350565b6000546001600160a01b036101009091041633146108eb5760405163118cdaa760e01b815233600482015260240161135f565b6122e161271c565b6002600080516020612d5583398151915255565b60005460ff16156108eb5760405163d93c066560e01b815260040160405180910390fd5b61232784848484600161274c565b61191257604051635274afe760e01b81526001600160a01b038516600482015260240161135f565b6123576127be565b6000805460ff191690557f5db9ee0a495bf2e6ff9c91a7834c1ba4fdd244a5e8aa4e537bd38aeae4b073aa335b6040516001600160a01b03909116815260200160405180910390a1565b6123ae83838360016127e1565b611a1657604051635274afe760e01b81526001600160a01b038416600482015260240161135f565b600180546001600160a01b0319169055610b0181612847565b6123f76122f5565b6000805460ff191660011790557f62e78cea01bee320cd4e420270b5ea74000d11b0c9f74754ebdbfc544b05a2586123843390565b6000828152600560205260408120908154600160a01b900460ff16600481111561245857612458612bc5565b0361246257505050565b60018154600160a81b900460ff16600181111561248157612481612bc5565b1461248b57505050565b60018154600160a01b900460ff1660048111156124aa576124aa612bc5565b146124b457505050565b60018101546006820154825460058401546001600160a01b0392831692821691600390869060ff60a01b1916600160a01b830217905550838560020181905550600660008881526020019081526020016000206040518060a00160405280838152602001856001600160a01b031681526020018681526020014281526020018881525090806001815401808255809150506001900390600052602060002090600502016000909190919091506000820151816000015560208201518160010160006101000a8154816001600160a01b0302191690836001600160a01b0316021790555060408201518160020155606082015181600301556080820151816004015550508360086000846001600160a01b03166001600160a01b0316815260200190815260200160002060008282546125ec9190612d15565b9250508190555083600360008282546126059190612d15565b9091555061263f90506001600160a01b037f00000000000000000000000000000000000000000000000000000000000000001684866123a1565b60408051858152600060208201526001600160a01b0385169183918a917f4b5d912a3e63856c653fe1bc95044e8cb68e89e3f5ba1fe7f44e62b16d5fa51f910160405180910390a460408051858152602081018890526001600160a01b0385169189917fece49599def9baf16cc9f5448a9516c8668736c3e7677a4448ffa33a697c52b1910160405180910390a360408051858152600160208201526001600160a01b0384169189917fd693e88f654cb1706d5df6a1c088fd6b5f214a456c50611639c7383b48bb1766910160405180910390a350505050505050565b600080516020612d55833981519152546002036108eb57604051633ee5aeb560e01b815260040160405180910390fd5b6040516323b872dd60e01b60008181526001600160a01b038781166004528616602452604485905291602083606481808c5af1925060016000511483166127ac57838315161561279f573d6000823e3d81fd5b6000883b113d1516831692505b60405250600060605295945050505050565b60005460ff166108eb57604051638dfc202b60e01b815260040160405180910390fd5b60405163a9059cbb60e01b60008181526001600160a01b038616600452602485905291602083604481808b5af19250600160005114831661283b57838315161561282e573d6000823e3d81fd5b6000873b113d1516831692505b60405250949350505050565b600080546001600160a01b03838116610100818102610100600160a81b0319851617855560405193049190911692909183917f8be0079c531659141344cd1fd0a4f28419497f9722a3daafe3b4186f6b6457e091a35050565b80356001600160a01b03811681146108d657600080fd5b6000602082840312156128c957600080fd5b610eeb826128a0565b6000602082840312156128e457600080fd5b5035919050565b60008060006060848603121561290057600080fd5b83359250612910602085016128a0565b9150604084013590509250925092565b6000806040838503121561293357600080fd5b50508035926020909101359150565b600081518084526020808501945080840160005b8381101561297257815187529582019590820190600101612956565b509495945050505050565b600081518084526020808501945080840160005b838110156129725781516001600160a01b031687529582019590820190600101612991565b60a0815260006129c960a0830188612942565b82810360208401526129db818861297d565b905082810360408401526129ef8187612942565b90508281036060840152612a038186612942565b90508281036080840152612a178185612942565b98975050505050505050565b600080600080600060a08688031215612a3b57600080fd5b8535945060208601359350612a52604087016128a0565b94979396509394606081013594506080013592915050565b60008083601f840112612a7c57600080fd5b50813567ffffffffffffffff811115612a9457600080fd5b6020830191508360208260051b8501011115612aaf57600080fd5b9250929050565b60008060008060408587031215612acc57600080fd5b843567ffffffffffffffff80821115612ae457600080fd5b612af088838901612a6a565b90965094506020870135915080821115612b0957600080fd5b50612b1687828801612a6a565b95989497509550505050565b602080825282518282018190526000919060409081850190868401855b82811015612b8c57815180518552868101516001600160a01b0316878601528581015186860152606080820151908601526080908101519085015260a09093019290850190600101612b3f565b5091979650505050505050565b600080600060608486031215612bae57600080fd5b612bb7846128a0565b9250612910602085016128a0565b634e487b7160e01b600052602160045260246000fd5b60028110612beb57612beb612bc5565b9052565b6001600160a01b038716815260c0810160058710612c0f57612c0f612bc5565b866020830152612c226040830187612bdb565b8460608301528360808301528260a0830152979650505050505050565b60a081526000612c5260a0830188612942565b8281036020840152612c64818861297d565b905082810360408401526129ef818761297d565b602081526000610eeb6020830184612942565b600060208284031215612c9d57600080fd5b5051919050565b634e487b7160e01b600052601160045260246000fd5b600060018201612ccc57612ccc612ca4565b5060010190565b80820180821115612ce657612ce6612ca4565b92915050565b60808101612cfa8287612bdb565b84602083015283604083015282606083015295945050505050565b81810381811115612ce657612ce6612ca4565b634e487b7160e01b600052604160045260246000fd5b634e487b7160e01b600052603260045260246000fdfe9b779b17422d0df92223018b32b4d1fa46e071723d6817e2486d003becc55f00a2646970667358221220d6608566e4ad2c47ff099cf5a4bfa6fbbf41031942af5017430d8ca5ea485e1564736f6c63430008140033","linkReferences":{}},"methodIdentifiers":{"DEP20_USDT()":"3028139f","MAX_ORDER_AMOUNT()":"9c3619cf","MIN_ORDER_AMOUNT()":"40bf2aa4","ORDER_EXPIRY_TIME()":"95c3c6ed","acceptOwnership()":"79ba5097","batchCompleteFillOrders(uint256[],bytes32[])":"afea4bb2","bridgeRelayer()":"7f6577b6","cancelOrder(uint256)":"514fcac7","completeFillOrder(uint256,bytes32)":"d8053665","createSellOrder(uint256)":"3c81c4b8","fillAndRelease(uint256,uint256,address,uint256,bytes32)":"a4d876a9","fillBscBuyOrder(uint256,address,uint256)":"594223b8","getDscOrderForBscOrder(uint256)":"8b024fbe","getOpenSellOrders(uint256,uint256)":"5f15ff09","getOrder(uint256)":"d09ef241","getOrderCount()":"8d0a5fbb","getOrderDetails(uint256)":"ec7dd7bb","getOrderFills(uint256)":"b911d64b","getPendingFillOrders(uint256,uint256)":"d8843458","getUserLockedAmount(address)":"ae36935d","getUserOrderIds(address)":"ec641a1d","owner()":"8da5cb5b","pause()":"8456cb59","paused()":"5c975abb","pendingOwner()":"e30c3978","renounceOwnership()":"715018a6","rescueTokens(address,address,uint256)":"cea9d26f","setBridgeRelayer(address)":"20d153b5","totalLocked()":"56891412","transferOwnership(address)":"f2fde38b","unpause()":"3f4ba83a"},"id":44}