{"abi":[{"type":"constructor","inputs":[{"name":"_owner","type":"address","internalType":"address"}],"stateMutability":"nonpayable"},{"type":"function","name":"MAX_TIMELOCK","inputs":[],"outputs":[{"name":"","type":"uint256","internalType":"uint256"}],"stateMutability":"view"},{"type":"function","name":"MIN_TIMELOCK","inputs":[],"outputs":[{"name":"","type":"uint256","internalType":"uint256"}],"stateMutability":"view"},{"type":"function","name":"cancelOrder","inputs":[{"name":"orderId","type":"uint256","internalType":"uint256"}],"outputs":[],"stateMutability":"nonpayable"},{"type":"function","name":"createOrder","inputs":[{"name":"sellToken","type":"address","internalType":"address"},{"name":"sellAmount","type":"uint256","internalType":"uint256"},{"name":"buyToken","type":"address","internalType":"address"},{"name":"buyAmount","type":"uint256","internalType":"uint256"},{"name":"dstChainId","type":"uint256","internalType":"uint256"},{"name":"hashLock","type":"bytes32","internalType":"bytes32"},{"name":"makerTimelock","type":"uint256","internalType":"uint256"},{"name":"takerTimelock","type":"uint256","internalType":"uint256"}],"outputs":[{"name":"orderId","type":"uint256","internalType":"uint256"}],"stateMutability":"nonpayable"},{"type":"function","name":"getOrder","inputs":[{"name":"orderId","type":"uint256","internalType":"uint256"}],"outputs":[{"name":"","type":"tuple","internalType":"struct IP2POrderbook.Order","components":[{"name":"maker","type":"address","internalType":"address"},{"name":"sellToken","type":"address","internalType":"address"},{"name":"sellAmount","type":"uint256","internalType":"uint256"},{"name":"buyToken","type":"address","internalType":"address"},{"name":"buyAmount","type":"uint256","internalType":"uint256"},{"name":"srcChainId","type":"uint256","internalType":"uint256"},{"name":"dstChainId","type":"uint256","internalType":"uint256"},{"name":"hashLock","type":"bytes32","internalType":"bytes32"},{"name":"makerTimelock","type":"uint256","internalType":"uint256"},{"name":"takerTimelock","type":"uint256","internalType":"uint256"},{"name":"cancelled","type":"bool","internalType":"bool"}]}],"stateMutability":"view"},{"type":"function","name":"orderCount","inputs":[],"outputs":[{"name":"","type":"uint256","internalType":"uint256"}],"stateMutability":"view"},{"type":"function","name":"orders","inputs":[{"name":"","type":"uint256","internalType":"uint256"}],"outputs":[{"name":"maker","type":"address","internalType":"address"},{"name":"sellToken","type":"address","internalType":"address"},{"name":"sellAmount","type":"uint256","internalType":"uint256"},{"name":"buyToken","type":"address","internalType":"address"},{"name":"buyAmount","type":"uint256","internalType":"uint256"},{"name":"srcChainId","type":"uint256","internalType":"uint256"},{"name":"dstChainId","type":"uint256","internalType":"uint256"},{"name":"hashLock","type":"bytes32","internalType":"bytes32"},{"name":"makerTimelock","type":"uint256","internalType":"uint256"},{"name":"takerTimelock","type":"uint256","internalType":"uint256"},{"name":"cancelled","type":"bool","internalType":"bool"}],"stateMutability":"view"},{"type":"function","name":"owner","inputs":[],"outputs":[{"name":"","type":"address","internalType":"address"}],"stateMutability":"view"},{"type":"function","name":"pause","inputs":[],"outputs":[],"stateMutability":"nonpayable"},{"type":"function","name":"paused","inputs":[],"outputs":[{"name":"","type":"bool","internalType":"bool"}],"stateMutability":"view"},{"type":"function","name":"renounceOwnership","inputs":[],"outputs":[],"stateMutability":"nonpayable"},{"type":"function","name":"transferOwnership","inputs":[{"name":"newOwner","type":"address","internalType":"address"}],"outputs":[],"stateMutability":"nonpayable"},{"type":"function","name":"unpause","inputs":[],"outputs":[],"stateMutability":"nonpayable"},{"type":"event","name":"OrderCancelled","inputs":[{"name":"orderId","type":"uint256","indexed":true,"internalType":"uint256"},{"name":"maker","type":"address","indexed":true,"internalType":"address"}],"anonymous":false},{"type":"event","name":"OrderCreated","inputs":[{"name":"orderId","type":"uint256","indexed":true,"internalType":"uint256"},{"name":"maker","type":"address","indexed":true,"internalType":"address"},{"name":"sellToken","type":"address","indexed":false,"internalType":"address"},{"name":"sellAmount","type":"uint256","indexed":false,"internalType":"uint256"},{"name":"buyToken","type":"address","indexed":false,"internalType":"address"},{"name":"buyAmount","type":"uint256","indexed":false,"internalType":"uint256"},{"name":"srcChainId","type":"uint256","indexed":false,"internalType":"uint256"},{"name":"dstChainId","type":"uint256","indexed":false,"internalType":"uint256"},{"name":"hashLock","type":"bytes32","indexed":false,"internalType":"bytes32"},{"name":"makerTimelock","type":"uint256","indexed":false,"internalType":"uint256"},{"name":"takerTimelock","type":"uint256","indexed":false,"internalType":"uint256"}],"anonymous":false},{"type":"event","name":"OwnershipTransferred","inputs":[{"name":"previousOwner","type":"address","indexed":true,"internalType":"address"},{"name":"newOwner","type":"address","indexed":true,"internalType":"address"}],"anonymous":false},{"type":"event","name":"Paused","inputs":[{"name":"account","type":"address","indexed":false,"internalType":"address"}],"anonymous":false},{"type":"event","name":"Unpaused","inputs":[{"name":"account","type":"address","indexed":false,"internalType":"address"}],"anonymous":false},{"type":"error","name":"EnforcedPause","inputs":[]},{"type":"error","name":"ExpectedPause","inputs":[]},{"type":"error","name":"InvalidAmount","inputs":[]},{"type":"error","name":"InvalidHashLock","inputs":[]},{"type":"error","name":"InvalidTimelock","inputs":[]},{"type":"error","name":"NotOrderMaker","inputs":[]},{"type":"error","name":"OrderAlreadyCancelled","inputs":[]},{"type":"error","name":"OrderNotFound","inputs":[]},{"type":"error","name":"OwnableInvalidOwner","inputs":[{"name":"owner","type":"address","internalType":"address"}]},{"type":"error","name":"OwnableUnauthorizedAccount","inputs":[{"name":"account","type":"address","internalType":"address"}]},{"type":"error","name":"ReentrancyGuardReentrantCall","inputs":[]}],"bytecode":{"object":"0x608060405234801561001057600080fd5b50604051610caf380380610caf83398101604081905261002f916100eb565b8060017f9b779b17422d0df92223018b32b4d1fa46e071723d6817e2486d003becc55f00556001600160a01b03811661008257604051631e4fbdf760e01b81526000600482015260240160405180910390fd5b61008b81610092565b505061011b565b600080546001600160a01b03838116610100818102610100600160a81b0319851617855560405193049190911692909183917f8be0079c531659141344cd1fd0a4f28419497f9722a3daafe3b4186f6b6457e091a35050565b6000602082840312156100fd57600080fd5b81516001600160a01b038116811461011457600080fd5b9392505050565b610b858061012a6000396000f3fe608060405234801561001057600080fd5b50600436106100cf5760003560e01c80638456cb591161008c578063a85c38ef11610066578063a85c38ef14610179578063d09ef24114610255578063f2fde38b1461036c578063fb0c75491461037f57600080fd5b80638456cb591461013e5780638da5cb5b1461014657806394f1825b1461016f57600080fd5b80632453ffa8146100d45780633edbb3c2146100f05780633f4ba83a14610103578063514fcac71461010d5780635c975abb14610120578063715018a614610136575b600080fd5b6100dd60025481565b6040519081526020015b60405180910390f35b6100dd6100fe3660046109b5565b610388565b61010b610692565b005b61010b61011b366004610a1f565b6106a4565b60005460ff1660405190151581526020016100e7565b61010b610789565b61010b61079b565b60005461010090046001600160a01b03166040516001600160a01b0390911681526020016100e7565b6100dd62278d0081565b6101f2610187366004610a1f565b600160208190526000918252604090912080549181015460028201546003830154600484015460058501546006860154600787015460088801546009890154600a909901546001600160a01b039a8b169a988916999798909616969495939492939192909160ff168b565b604080516001600160a01b039c8d1681529a8c1660208c01528a0198909852989095166060880152608087019390935260a086019190915260c085015260e0840152610100830152610120820192909252901515610140820152610160016100e7565b61035f610263366004610a1f565b6040805161016081018252600080825260208201819052918101829052606081018290526080810182905260a0810182905260c0810182905260e08101829052610100810182905261012081018290526101408101919091525060009081526001602081815260409283902083516101608101855281546001600160a01b039081168252938201548416928101929092526002810154938201939093526003830154909116606082015260048201546080820152600582015460a0820152600682015460c0820152600782015460e082015260088201546101008201526009820154610120820152600a9091015460ff16151561014082015290565b6040516100e79190610a38565b61010b61037a366004610ae6565b6107ab565b6100dd610e1081565b60006103926107eb565b61039a610807565b8715806103a5575085155b156103c35760405163162908e360e11b815260040160405180910390fd5b836103e15760405163bc5ed0b360e01b815260040160405180910390fd5b610e108310806103f25750610e1082105b806103ff575062278d0083115b8061040c575062278d0082115b1561042a57604051637c68874160e11b815260040160405180910390fd5b81831161044a57604051637c68874160e11b815260040160405180910390fd5b600280544691600061045b83610b08565b919050559150604051806101600160405280336001600160a01b031681526020018b6001600160a01b031681526020018a8152602001896001600160a01b03168152602001888152602001828152602001878152602001868152602001858152602001848152602001600015158152506001600084815260200190815260200160002060008201518160000160006101000a8154816001600160a01b0302191690836001600160a01b0316021790555060208201518160010160006101000a8154816001600160a01b0302191690836001600160a01b031602179055506040820151816002015560608201518160030160006101000a8154816001600160a01b0302191690836001600160a01b031602179055506080820151816004015560a0820151816005015560c0820151816006015560e082015181600701556101008201518160080155610120820151816009015561014082015181600a0160006101000a81548160ff021916908315150217905550905050336001600160a01b0316827f64f888cce816d3a7904086db8f8d279a736c1b77d5a54f2b70c40fa13a1038f08c8c8c8c878d8d8d8d604051610666999897969594939291906001600160a01b03998a16815260208101989098529590971660408701526060860193909352608085019190915260a084015260c083015260e08201929092526101008101919091526101200190565b60405180910390a3506106866001600080516020610b3083398151915255565b98975050505050505050565b61069a61082b565b6106a261085e565b565b6106ac6107eb565b600081815260016020526040902080546001600160a01b03166106e25760405163d36d896560e01b815260040160405180910390fd5b80546001600160a01b0316331461070c576040516380f806d960e01b815260040160405180910390fd5b600a81015460ff161561073257604051633e43d23960e11b815260040160405180910390fd5b600a8101805460ff19166001179055604051339083907fc0362da6f2ff36b382b34aec0814f6b3cdf89f5ef282a1d1f114d0c0b036d59690600090a3506107866001600080516020610b3083398151915255565b50565b61079161082b565b6106a260006108b0565b6107a361082b565b6106a2610909565b6107b361082b565b6001600160a01b0381166107e257604051631e4fbdf760e01b8152600060048201526024015b60405180910390fd5b610786816108b0565b6107f3610946565b6002600080516020610b3083398151915255565b60005460ff16156106a25760405163d93c066560e01b815260040160405180910390fd5b6000546001600160a01b036101009091041633146106a25760405163118cdaa760e01b81523360048201526024016107d9565b610866610976565b6000805460ff191690557f5db9ee0a495bf2e6ff9c91a7834c1ba4fdd244a5e8aa4e537bd38aeae4b073aa335b6040516001600160a01b03909116815260200160405180910390a1565b600080546001600160a01b03838116610100818102610100600160a81b0319851617855560405193049190911692909183917f8be0079c531659141344cd1fd0a4f28419497f9722a3daafe3b4186f6b6457e091a35050565b610911610807565b6000805460ff191660011790557f62e78cea01bee320cd4e420270b5ea74000d11b0c9f74754ebdbfc544b05a2586108933390565b600080516020610b30833981519152546002036106a257604051633ee5aeb560e01b815260040160405180910390fd5b60005460ff166106a257604051638dfc202b60e01b815260040160405180910390fd5b80356001600160a01b03811681146109b057600080fd5b919050565b600080600080600080600080610100898b0312156109d257600080fd5b6109db89610999565b9750602089013596506109f060408a01610999565b979a96995096976060810135975060808101359660a0820135965060c0820135955060e0909101359350915050565b600060208284031215610a3157600080fd5b5035919050565b81516001600160a01b0316815261016081016020830151610a6460208401826001600160a01b03169052565b50604083015160408301526060830151610a8960608401826001600160a01b03169052565b506080830151608083015260a083015160a083015260c083015160c083015260e083015160e083015261010080840151818401525061012080840151818401525061014080840151610ade8285018215159052565b505092915050565b600060208284031215610af857600080fd5b610b0182610999565b9392505050565b600060018201610b2857634e487b7160e01b600052601160045260246000fd5b506001019056fe9b779b17422d0df92223018b32b4d1fa46e071723d6817e2486d003becc55f00a26469706673582212201dafb5b1cd8f5d1a7c046138966f9dc266be164524e761fb91131f60a25af75e64736f6c63430008140033","linkReferences":{}},"methodIdentifiers":{"MAX_TIMELOCK()":"94f1825b","MIN_TIMELOCK()":"fb0c7549","cancelOrder(uint256)":"514fcac7","createOrder(address,uint256,address,uint256,uint256,bytes32,uint256,uint256)":"3edbb3c2","getOrder(uint256)":"d09ef241","orderCount()":"2453ffa8","orders(uint256)":"a85c38ef","owner()":"8da5cb5b","pause()":"8456cb59","paused()":"5c975abb","renounceOwnership()":"715018a6","transferOwnership(address)":"f2fde38b","unpause()":"3f4ba83a"},"id":40}