{"abi":[{"type":"constructor","inputs":[{"name":"_usdt","type":"address","internalType":"address"},{"name":"_bridgeRelayer","type":"address","internalType":"address"}],"stateMutability":"nonpayable"},{"type":"function","name":"MAX_ORDER_AMOUNT","inputs":[],"outputs":[{"name":"","type":"uint256","internalType":"uint256"}],"stateMutability":"view"},{"type":"function","name":"MIN_ORDER_AMOUNT","inputs":[],"outputs":[{"name":"","type":"uint256","internalType":"uint256"}],"stateMutability":"view"},{"type":"function","name":"ORDER_EXPIRY_TIME","inputs":[],"outputs":[{"name":"","type":"uint256","internalType":"uint256"}],"stateMutability":"view"},{"type":"function","name":"USDT","inputs":[],"outputs":[{"name":"","type":"address","internalType":"contract IERC20"}],"stateMutability":"view"},{"type":"function","name":"acceptOwnership","inputs":[],"outputs":[],"stateMutability":"nonpayable"},{"type":"function","name":"batchFillAndRelease","inputs":[{"name":"bscOrderIds","type":"uint256[]","internalType":"uint256[]"},{"name":"dscOrderIds","type":"uint256[]","internalType":"uint256[]"},{"name":"sellers","type":"address[]","internalType":"address[]"},{"name":"amounts","type":"uint256[]","internalType":"uint256[]"},{"name":"dscTxHashes","type":"bytes32[]","internalType":"bytes32[]"}],"outputs":[],"stateMutability":"nonpayable"},{"type":"function","name":"bridgeRelayer","inputs":[],"outputs":[{"name":"","type":"address","internalType":"address"}],"stateMutability":"view"},{"type":"function","name":"cancelOrder","inputs":[{"name":"orderId","type":"uint256","internalType":"uint256"}],"outputs":[],"stateMutability":"nonpayable"},{"type":"function","name":"createBuyOrder","inputs":[{"name":"amount","type":"uint256","internalType":"uint256"}],"outputs":[{"name":"orderId","type":"uint256","internalType":"uint256"}],"stateMutability":"nonpayable"},{"type":"function","name":"fillAndRelease","inputs":[{"name":"bscOrderId","type":"uint256","internalType":"uint256"},{"name":"dscOrderId","type":"uint256","internalType":"uint256"},{"name":"seller","type":"address","internalType":"address"},{"name":"amount","type":"uint256","internalType":"uint256"},{"name":"dscTxHash","type":"bytes32","internalType":"bytes32"}],"outputs":[],"stateMutability":"nonpayable"},{"type":"function","name":"getOpenOrders","inputs":[{"name":"offset","type":"uint256","internalType":"uint256"},{"name":"limit","type":"uint256","internalType":"uint256"}],"outputs":[{"name":"orderIds","type":"uint256[]","internalType":"uint256[]"},{"name":"users","type":"address[]","internalType":"address[]"},{"name":"amounts","type":"uint256[]","internalType":"uint256[]"},{"name":"remainingAmounts","type":"uint256[]","internalType":"uint256[]"},{"name":"expiresAts","type":"uint256[]","internalType":"uint256[]"}],"stateMutability":"view"},{"type":"function","name":"getOrder","inputs":[{"name":"orderId","type":"uint256","internalType":"uint256"}],"outputs":[{"name":"user","type":"address","internalType":"address"},{"name":"status","type":"uint8","internalType":"enum P2PVaultBSCv2.OrderStatus"},{"name":"orderType","type":"uint8","internalType":"enum P2PVaultBSCv2.OrderType"},{"name":"amount","type":"uint256","internalType":"uint256"},{"name":"filledAmount","type":"uint256","internalType":"uint256"},{"name":"expiresAt","type":"uint256","internalType":"uint256"}],"stateMutability":"view"},{"type":"function","name":"getOrderCount","inputs":[],"outputs":[{"name":"","type":"uint256","internalType":"uint256"}],"stateMutability":"view"},{"type":"function","name":"getOrderDetails","inputs":[{"name":"orderId","type":"uint256","internalType":"uint256"}],"outputs":[{"name":"remainingAmount","type":"uint256","internalType":"uint256"},{"name":"createdAt","type":"uint256","internalType":"uint256"},{"name":"fillCount","type":"uint256","internalType":"uint256"}],"stateMutability":"view"},{"type":"function","name":"getOrderFills","inputs":[{"name":"orderId","type":"uint256","internalType":"uint256"}],"outputs":[{"name":"","type":"tuple[]","internalType":"struct P2PVaultBSCv2.Fill[]","components":[{"name":"dscOrderId","type":"uint256","internalType":"uint256"},{"name":"counterparty","type":"address","internalType":"address"},{"name":"amount","type":"uint256","internalType":"uint256"},{"name":"timestamp","type":"uint256","internalType":"uint256"},{"name":"dscTxHash","type":"bytes32","internalType":"bytes32"}]}],"stateMutability":"view"},{"type":"function","name":"getUserLockedAmount","inputs":[{"name":"user","type":"address","internalType":"address"}],"outputs":[{"name":"","type":"uint256","internalType":"uint256"}],"stateMutability":"view"},{"type":"function","name":"getUserOrderIds","inputs":[{"name":"user","type":"address","internalType":"address"}],"outputs":[{"name":"","type":"uint256[]","internalType":"uint256[]"}],"stateMutability":"view"},{"type":"function","name":"isDscOrderUsed","inputs":[{"name":"bscOrderId","type":"uint256","internalType":"uint256"},{"name":"dscOrderId","type":"uint256","internalType":"uint256"}],"outputs":[{"name":"","type":"bool","internalType":"bool"}],"stateMutability":"view"},{"type":"function","name":"owner","inputs":[],"outputs":[{"name":"","type":"address","internalType":"address"}],"stateMutability":"view"},{"type":"function","name":"pause","inputs":[],"outputs":[],"stateMutability":"nonpayable"},{"type":"function","name":"paused","inputs":[],"outputs":[{"name":"","type":"bool","internalType":"bool"}],"stateMutability":"view"},{"type":"function","name":"pendingOwner","inputs":[],"outputs":[{"name":"","type":"address","internalType":"address"}],"stateMutability":"view"},{"type":"function","name":"renounceOwnership","inputs":[],"outputs":[],"stateMutability":"nonpayable"},{"type":"function","name":"rescueTokens","inputs":[{"name":"token","type":"address","internalType":"address"},{"name":"to","type":"address","internalType":"address"},{"name":"amount","type":"uint256","internalType":"uint256"}],"outputs":[],"stateMutability":"nonpayable"},{"type":"function","name":"setBridgeRelayer","inputs":[{"name":"newRelayer","type":"address","internalType":"address"}],"outputs":[],"stateMutability":"nonpayable"},{"type":"function","name":"totalLocked","inputs":[],"outputs":[{"name":"","type":"uint256","internalType":"uint256"}],"stateMutability":"view"},{"type":"function","name":"transferOwnership","inputs":[{"name":"newOwner","type":"address","internalType":"address"}],"outputs":[],"stateMutability":"nonpayable"},{"type":"function","name":"unpause","inputs":[],"outputs":[],"stateMutability":"nonpayable"},{"type":"event","name":"FundsReleased","inputs":[{"name":"bscOrderId","type":"uint256","indexed":true,"internalType":"uint256"},{"name":"recipient","type":"address","indexed":true,"internalType":"address"},{"name":"amount","type":"uint256","indexed":false,"internalType":"uint256"},{"name":"dscTxHash","type":"bytes32","indexed":false,"internalType":"bytes32"}],"anonymous":false},{"type":"event","name":"OrderCancelled","inputs":[{"name":"orderId","type":"uint256","indexed":true,"internalType":"uint256"},{"name":"user","type":"address","indexed":true,"internalType":"address"},{"name":"refundAmount","type":"uint256","indexed":false,"internalType":"uint256"}],"anonymous":false},{"type":"event","name":"OrderCompleted","inputs":[{"name":"orderId","type":"uint256","indexed":true,"internalType":"uint256"},{"name":"user","type":"address","indexed":true,"internalType":"address"},{"name":"totalAmount","type":"uint256","indexed":false,"internalType":"uint256"},{"name":"fillCount","type":"uint256","indexed":false,"internalType":"uint256"}],"anonymous":false},{"type":"event","name":"OrderCreated","inputs":[{"name":"orderId","type":"uint256","indexed":true,"internalType":"uint256"},{"name":"user","type":"address","indexed":true,"internalType":"address"},{"name":"orderType","type":"uint8","indexed":false,"internalType":"enum P2PVaultBSCv2.OrderType"},{"name":"amount","type":"uint256","indexed":false,"internalType":"uint256"},{"name":"expiresAt","type":"uint256","indexed":false,"internalType":"uint256"}],"anonymous":false},{"type":"event","name":"OrderFilled","inputs":[{"name":"bscOrderId","type":"uint256","indexed":true,"internalType":"uint256"},{"name":"dscOrderId","type":"uint256","indexed":true,"internalType":"uint256"},{"name":"filler","type":"address","indexed":true,"internalType":"address"},{"name":"amount","type":"uint256","indexed":false,"internalType":"uint256"},{"name":"isPartial","type":"bool","indexed":false,"internalType":"bool"}],"anonymous":false},{"type":"event","name":"OwnershipTransferStarted","inputs":[{"name":"previousOwner","type":"address","indexed":true,"internalType":"address"},{"name":"newOwner","type":"address","indexed":true,"internalType":"address"}],"anonymous":false},{"type":"event","name":"OwnershipTransferred","inputs":[{"name":"previousOwner","type":"address","indexed":true,"internalType":"address"},{"name":"newOwner","type":"address","indexed":true,"internalType":"address"}],"anonymous":false},{"type":"event","name":"Paused","inputs":[{"name":"account","type":"address","indexed":false,"internalType":"address"}],"anonymous":false},{"type":"event","name":"Unpaused","inputs":[{"name":"account","type":"address","indexed":false,"internalType":"address"}],"anonymous":false},{"type":"error","name":"AmountTooLarge","inputs":[]},{"type":"error","name":"AmountTooSmall","inputs":[]},{"type":"error","name":"DscOrderAlreadyUsed","inputs":[]},{"type":"error","name":"EnforcedPause","inputs":[]},{"type":"error","name":"ExpectedPause","inputs":[]},{"type":"error","name":"FillAmountExceedsRemaining","inputs":[]},{"type":"error","name":"InsufficientBalance","inputs":[]},{"type":"error","name":"InvalidDscOrderId","inputs":[]},{"type":"error","name":"InvalidOrderStatus","inputs":[]},{"type":"error","name":"NotAuthorized","inputs":[]},{"type":"error","name":"NotOrderOwner","inputs":[]},{"type":"error","name":"OrderExpired","inputs":[]},{"type":"error","name":"OrderNotFound","inputs":[]},{"type":"error","name":"OwnableInvalidOwner","inputs":[{"name":"owner","type":"address","internalType":"address"}]},{"type":"error","name":"OwnableUnauthorizedAccount","inputs":[{"name":"account","type":"address","internalType":"address"}]},{"type":"error","name":"ReentrancyGuardReentrantCall","inputs":[]},{"type":"error","name":"SafeERC20FailedOperation","inputs":[{"name":"token","type":"address","internalType":"address"}]},{"type":"error","name":"ZeroAddress","inputs":[]},{"type":"error","name":"ZeroAmount","inputs":[]}],"bytecode":{"object":"0x60a06040523480156200001157600080fd5b50604051620024ac380380620024ac833981016040819052620000349162000185565b60017f9b779b17422d0df92223018b32b4d1fa46e071723d6817e2486d003becc55f005533806200007f57604051631e4fbdf760e01b81526000600482015260240160405180910390fd5b6200008a81620000f1565b506001600160a01b0382161580620000a957506001600160a01b038116155b15620000c85760405163d92e233d60e01b815260040160405180910390fd5b6001600160a01b03918216608052600480546001600160a01b03191691909216179055620001bd565b600180546001600160a01b03191690556200010c816200010f565b50565b600080546001600160a01b03838116610100818102610100600160a81b0319851617855560405193049190911692909183917f8be0079c531659141344cd1fd0a4f28419497f9722a3daafe3b4186f6b6457e091a35050565b80516001600160a01b03811681146200018057600080fd5b919050565b600080604083850312156200019957600080fd5b620001a48362000168565b9150620001b46020840162000168565b90509250929050565b6080516122b0620001fc600039600081816103740152818161064301528181610d4901528181610f590152818161136f0152611a0601526122b06000f3fe608060405234801561001057600080fd5b50600436106101c45760003560e01c80638d0a5fbb116100f9578063c54e44eb11610097578063e30c397811610071578063e30c39781461040e578063ec641a1d1461041f578063ec7dd7bb1461043f578063f2fde38b1461046d57600080fd5b8063c54e44eb1461036f578063cea9d26f14610396578063d09ef241146103a957600080fd5b80639c3619cf116100d35780639c3619cf14610302578063a4d876a914610313578063ae36935d14610326578063b911d64b1461034f57600080fd5b80638d0a5fbb146102da5780638da5cb5b146102e257806395c3c6ed146102f857600080fd5b806361ff648b1161016657806379ba50971161014057806379ba50971461028c5780637f6577b6146102945780638456cb59146102bf57806384ce1bfc146102c757600080fd5b806361ff648b1461024d57806365fa9cda14610260578063715018a61461028457600080fd5b8063514fcac7116101a2578063514fcac714610207578063552e8d9b1461021a578063568914121461022d5780635c975abb1461023657600080fd5b806320d153b5146101c95780633f4ba83a146101de57806340bf2aa4146101e6575b600080fd5b6101dc6101d7366004611d79565b610480565b005b6101dc6104d1565b6101f466038d7ea4c6800081565b6040519081526020015b60405180910390f35b6101dc610215366004611d9b565b6104e3565b6101dc610228366004611e00565b6106bd565b6101f460035481565b60005460ff165b60405190151581526020016101fe565b61023d61025b366004611ef1565b610849565b61027361026e366004611ef1565b61086d565b6040516101fe959493929190611f4e565b6101dc610c48565b6101dc610c5a565b6004546102a7906001600160a01b031681565b6040516001600160a01b0390911681526020016101fe565b6101dc610c9b565b6101f46102d5366004611d9b565b610cab565b6002546101f4565b60005461010090046001600160a01b03166102a7565b6101f46201518081565b6101f469d3c21bcecceda100000081565b6101dc610321366004611feb565b610fe8565b6101f4610334366004611d79565b6001600160a01b031660009081526008602052604090205490565b61036261035d366004611d9b565b6114a9565b6040516101fe9190612032565b6102a77f000000000000000000000000000000000000000000000000000000000000000081565b6101dc6103a43660046120a9565b611550565b6103fc6103b7366004611d9b565b60009081526005602052604090208054600182015460028301546004909301546001600160a01b0383169460ff600160a01b8504811695600160a81b90950416939190565b6040516101fe9695949392919061210f565b6001546001600160a01b03166102a7565b61043261042d366004611d79565b6115ac565b6040516101fe919061215f565b61045261044d366004611d9b565b611618565b604080519384526020840192909252908201526060016101fe565b6101dc61047b366004611d79565b611661565b6104886116d8565b6001600160a01b0381166104af5760405163d92e233d60e01b815260040160405180910390fd5b600480546001600160a01b0319166001600160a01b0392909216919091179055565b6104d96116d8565b6104e161170b565b565b6104eb61175d565b6000818152600560205260408120908154600160a01b900460ff166004811115610517576105176120e5565b036105355760405163d36d896560e01b815260040160405180910390fd5b80546001600160a01b0316331461055f57604051637b2095ad60e11b815260040160405180910390fd5b60018154600160a01b900460ff16600481111561057e5761057e6120e5565b141580156105a9575060028154600160a01b900460ff1660048111156105a6576105a66120e5565b14155b156105c757604051632916ae3360e01b815260040160405180910390fd5b6000816002015482600101546105dd9190612188565b825460ff60a01b1916600160a21b17835533600090815260086020526040812080549293508392909190610612908490612188565b92505081905550806003600082825461062b9190612188565b9091555050801561066a5761066a6001600160a01b037f0000000000000000000000000000000000000000000000000000000000000000163383611779565b604051818152339084907fc4058ebc534b64ecb27b2d4eaa1904f98997ec18ebe6ada4117593dde89478cc9060200160405180910390a350506106ba600160008051602061225b83398151915255565b50565b6004546001600160a01b031633146106e85760405163ea8e4eb560e01b815260040160405180910390fd5b6106f061175d565b8887146107185760405162461bcd60e51b815260040161070f9061219b565b60405180910390fd5b8885146107375760405162461bcd60e51b815260040161070f9061219b565b8883146107565760405162461bcd60e51b815260040161070f9061219b565b8881146107755760405162461bcd60e51b815260040161070f9061219b565b60005b89811015610825576108138b8b83818110610795576107956121ca565b905060200201358a8a848181106107ae576107ae6121ca565b905060200201358989858181106107c7576107c76121ca565b90506020020160208101906107dc9190611d79565b8888868181106107ee576107ee6121ca565b90506020020135878787818110610807576108076121ca565b905060200201356117ae565b8061081d816121e0565b915050610778565b5061083d600160008051602061225b83398151915255565b50505050505050505050565b600082815260096020908152604080832084845290915290205460ff165b92915050565b606080808080600060015b600254811161090c57600081815260056020526040902060018154600160a01b900460ff1660048111156108ae576108ae6120e5565b14806108d6575060028154600160a01b900460ff1660048111156108d4576108d46120e5565b145b80156108e6575080600401544211155b156108f957826108f5816121e0565b9350505b5080610904816121e0565b915050610878565b50600081891161091c578861091e565b815b9050600081831161093057600061093a565b61093a8284612188565b9050888111156109475750875b8067ffffffffffffffff811115610960576109606121f9565b604051908082528060200260200182016040528015610989578160200160208202803683370190505b5097508067ffffffffffffffff8111156109a5576109a56121f9565b6040519080825280602002602001820160405280156109ce578160200160208202803683370190505b5096508067ffffffffffffffff8111156109ea576109ea6121f9565b604051908082528060200260200182016040528015610a13578160200160208202803683370190505b5095508067ffffffffffffffff811115610a2f57610a2f6121f9565b604051908082528060200260200182016040528015610a58578160200160208202803683370190505b5094508067ffffffffffffffff811115610a7457610a746121f9565b604051908082528060200260200182016040528015610a9d578160200160208202803683370190505b50935060008060015b6002548111158015610ab757508383105b15610c3857600081815260056020526040902060018154600160a01b900460ff166004811115610ae957610ae96120e5565b1480610b11575060028154600160a01b900460ff166004811115610b0f57610b0f6120e5565b145b8015610b21575080600401544211155b15610c25578d831015610b405782610b38816121e0565b935050610c25565b818c8581518110610b5357610b536121ca565b602090810291909101015280548b516001600160a01b03909116908c9086908110610b8057610b806121ca565b60200260200101906001600160a01b031690816001600160a01b03168152505080600101548a8581518110610bb757610bb76121ca565b60200260200101818152505080600201548160010154610bd79190612188565b898581518110610be957610be96121ca565b6020026020010181815250508060040154888581518110610c0c57610c0c6121ca565b602090810291909101015283610c21816121e0565b9450505b5080610c30816121e0565b915050610aa6565b5050505050509295509295909350565b610c506116d8565b6104e16000611b28565b60015433906001600160a01b03168114610c925760405163118cdaa760e01b81526001600160a01b038216600482015260240161070f565b6106ba81611b28565b610ca36116d8565b6104e1611b41565b6000610cb561175d565b610cbd611b7e565b8180600003610cdf57604051631f2a200560e01b815260040160405180910390fd5b66038d7ea4c68000811015610d075760405163617ab12d60e11b815260040160405180910390fd5b69d3c21bcecceda1000000811115610d3257604051630625040160e01b815260040160405180910390fd5b6040516370a0823160e01b815233600482015283907f00000000000000000000000000000000000000000000000000000000000000006001600160a01b0316906370a0823190602401602060405180830381865afa158015610d98573d6000803e3d6000fd5b505050506040513d601f19601f82011682018060405250810190610dbc919061220f565b1015610ddb57604051631e9acf1760e31b815260040160405180910390fd5b600260008154610dea906121e0565b91829055506040805160e08101909152338152909250602081016001815260200160008152602001848152602001600081526020014281526020016201518042610e349190612228565b90526000838152600560209081526040909120825181546001600160a01b039091166001600160a01b031982168117835592840151919283916001600160a81b03191617600160a01b836004811115610e8f57610e8f6120e5565b021790555060408201518154829060ff60a81b1916600160a81b836001811115610ebb57610ebb6120e5565b021790555060608201516001808301919091556080830151600283015560a0830151600383015560c09092015160049091015533600081815260076020908152604080832080549586018155835281832090940186905591815260089091529081208054859290610f2d908490612228565b925050819055508260036000828254610f469190612228565b90915550610f8190506001600160a01b037f000000000000000000000000000000000000000000000000000000000000000016333086611ba2565b33827fdcfc9309a5458ca3479b1ea99b51985a95f89ec3bdb17fe607c2ccca152b1380600086610fb46201518042612228565b604051610fc39392919061223b565b60405180910390a350610fe3600160008051602061225b83398151915255565b919050565b6004546001600160a01b031633146110135760405163ea8e4eb560e01b815260040160405180910390fd5b61101b61175d565b818060000361103d57604051631f2a200560e01b815260040160405180910390fd5b66038d7ea4c680008110156110655760405163617ab12d60e11b815260040160405180910390fd5b69d3c21bcecceda100000081111561109057604051630625040160e01b815260040160405180910390fd5b6001600160a01b0384166110b75760405163d92e233d60e01b815260040160405180910390fd5b846000036110d85760405163b80575b760e01b815260040160405180910390fd5b600086815260096020908152604080832088845290915290205460ff1615611113576040516308bb7f0d60e01b815260040160405180910390fd5b6000868152600560205260408120908154600160a01b900460ff16600481111561113f5761113f6120e5565b0361115d5760405163d36d896560e01b815260040160405180910390fd5b60018154600160a01b900460ff16600481111561117c5761117c6120e5565b141580156111a7575060028154600160a01b900460ff1660048111156111a4576111a46120e5565b14155b156111c557604051632916ae3360e01b815260040160405180910390fd5b80600401544211156111ea576040516362b439dd60e11b815260040160405180910390fd5b6000816002015482600101546112009190612188565b90508085111561122357604051634198384b60e01b815260040160405180910390fd5b60008881526009602090815260408083208a84529091528120805460ff1916600117905560028301805487929061125b908490612228565b90915550506001820154600283015414801561128757825460ff60a01b1916600360a01b178355611299565b825460ff60a01b1916600160a11b1783555b6000898152600660209081526040808320815160a0810183528c81526001600160a01b038c81168286019081528285018d81524260608501908152608085018e8152865460018082018955978b52898b2096516005909102909601958655925195850180546001600160a01b031916968516969096179095555160028401559251600383015591516004909101558654168352600890915281208054889290611343908490612188565b92505081905550856003600082825461135c9190612188565b9091555061139690506001600160a01b037f0000000000000000000000000000000000000000000000000000000000000000168888611779565b60408051878152821560208201526001600160a01b038916918a918c917f4b5d912a3e63856c653fe1bc95044e8cb68e89e3f5ba1fe7f44e62b16d5fa51f910160405180910390a460408051878152602081018790526001600160a01b038916918b917fece49599def9baf16cc9f5448a9516c8668736c3e7677a4448ffa33a697c52b1910160405180910390a38015611487578254600184015460008b815260066020908152604091829020548251938452908301526001600160a01b03909216918b917fd693e88f654cb1706d5df6a1c088fd6b5f214a456c50611639c7383b48bb1766910160405180910390a35b505050506114a2600160008051602061225b83398151915255565b5050505050565b606060066000838152602001908152602001600020805480602002602001604051908101604052809291908181526020016000905b828210156115455760008481526020908190206040805160a08101825260058602909201805483526001808201546001600160a01b0316848601526002820154928401929092526003810154606084015260040154608083015290835290920191016114de565b505050509050919050565b6115586116d8565b6001600160a01b038316158061157557506001600160a01b038216155b156115935760405163d92e233d60e01b815260040160405180910390fd5b6115a76001600160a01b0384168383611779565b505050565b6001600160a01b03811660009081526007602090815260409182902080548351818402810184019094528084526060939283018282801561160c57602002820191906000526020600020905b8154815260200190600101908083116115f8575b50505050509050919050565b6000818152600560205260408120600281015460018201548392839290916116409190612188565b60039190910154600095865260066020526040909520549095909350915050565b6116696116d8565b600180546001600160a01b0383166001600160a01b031990911681179091556116a06000546001600160a01b036101009091041690565b6001600160a01b03167f38d16b8cac22d99fc7c124b9cd0de2d3fa1faef420bfe791d8c362d765e2270060405160405180910390a350565b6000546001600160a01b036101009091041633146104e15760405163118cdaa760e01b815233600482015260240161070f565b611713611bde565b6000805460ff191690557f5db9ee0a495bf2e6ff9c91a7834c1ba4fdd244a5e8aa4e537bd38aeae4b073aa335b6040516001600160a01b03909116815260200160405180910390a1565b611765611c01565b600260008051602061225b83398151915255565b6117868383836001611c31565b6115a757604051635274afe760e01b81526001600160a01b038416600482015260240161070f565b6001600160a01b03831615806117c2575083155b806117cb575081155b6114a257600085815260096020908152604080832087845290915290205460ff166114a2576000858152600560205260408120908154600160a01b900460ff16600481111561181c5761181c6120e5565b0361182757506114a2565b60018154600160a01b900460ff166004811115611846576118466120e5565b14158015611871575060028154600160a01b900460ff16600481111561186e5761186e6120e5565b14155b1561187c57506114a2565b806004015442111561188e57506114a2565b6000816002015482600101546118a49190612188565b9050808411156118b2578093505b60008781526009602090815260408083208984529091528120805460ff191660011790556002830180548692906118ea908490612228565b9091555050600182015460028301541480611906576002611909565b60035b8354849060ff60a01b1916600160a01b83600481111561192b5761192b6120e5565b02179055506000888152600660209081526040808320815160a0810183528b81526001600160a01b038b81168286019081528285018c81524260608501908152608085018d8152865460018082018955978b52898b2096516005909102909601958655925195850180546001600160a01b0319169685169690961790955551600284015592516003830155915160049091015586541683526008909152812080548792906119da908490612188565b9250508190555084600360008282546119f39190612188565b90915550611a2d90506001600160a01b037f0000000000000000000000000000000000000000000000000000000000000000168787611779565b60408051868152821560208201526001600160a01b0388169189918b917f4b5d912a3e63856c653fe1bc95044e8cb68e89e3f5ba1fe7f44e62b16d5fa51f910160405180910390a460408051868152602081018690526001600160a01b038816918a917fece49599def9baf16cc9f5448a9516c8668736c3e7677a4448ffa33a697c52b1910160405180910390a38015611b1e578254600184015460008a815260066020908152604091829020548251938452908301526001600160a01b03909216918a917fd693e88f654cb1706d5df6a1c088fd6b5f214a456c50611639c7383b48bb1766910160405180910390a35b5050505050505050565b600180546001600160a01b03191690556106ba81611c97565b611b49611b7e565b6000805460ff191660011790557f62e78cea01bee320cd4e420270b5ea74000d11b0c9f74754ebdbfc544b05a2586117403390565b60005460ff16156104e15760405163d93c066560e01b815260040160405180910390fd5b611bb0848484846001611cf0565b611bd857604051635274afe760e01b81526001600160a01b038516600482015260240161070f565b50505050565b60005460ff166104e157604051638dfc202b60e01b815260040160405180910390fd5b60008051602061225b833981519152546002036104e157604051633ee5aeb560e01b815260040160405180910390fd5b60405163a9059cbb60e01b60008181526001600160a01b038616600452602485905291602083604481808b5af192506001600051148316611c8b578383151615611c7e573d6000823e3d81fd5b6000873b113d1516831692505b60405250949350505050565b600080546001600160a01b03838116610100818102610100600160a81b0319851617855560405193049190911692909183917f8be0079c531659141344cd1fd0a4f28419497f9722a3daafe3b4186f6b6457e091a35050565b6040516323b872dd60e01b60008181526001600160a01b038781166004528616602452604485905291602083606481808c5af192506001600051148316611d50578383151615611d43573d6000823e3d81fd5b6000883b113d1516831692505b60405250600060605295945050505050565b80356001600160a01b0381168114610fe357600080fd5b600060208284031215611d8b57600080fd5b611d9482611d62565b9392505050565b600060208284031215611dad57600080fd5b5035919050565b60008083601f840112611dc657600080fd5b50813567ffffffffffffffff811115611dde57600080fd5b6020830191508360208260051b8501011115611df957600080fd5b9250929050565b60008060008060008060008060008060a08b8d031215611e1f57600080fd5b8a3567ffffffffffffffff80821115611e3757600080fd5b611e438e838f01611db4565b909c509a5060208d0135915080821115611e5c57600080fd5b611e688e838f01611db4565b909a50985060408d0135915080821115611e8157600080fd5b611e8d8e838f01611db4565b909850965060608d0135915080821115611ea657600080fd5b611eb28e838f01611db4565b909650945060808d0135915080821115611ecb57600080fd5b50611ed88d828e01611db4565b915080935050809150509295989b9194979a5092959850565b60008060408385031215611f0457600080fd5b50508035926020909101359150565b600081518084526020808501945080840160005b83811015611f4357815187529582019590820190600101611f27565b509495945050505050565b60a081526000611f6160a0830188611f13565b82810360208481019190915287518083528882019282019060005b81811015611fa15784516001600160a01b031683529383019391830191600101611f7c565b50508481036040860152611fb58189611f13565b925050508281036060840152611fcb8186611f13565b90508281036080840152611fdf8185611f13565b98975050505050505050565b600080600080600060a0868803121561200357600080fd5b853594506020860135935061201a60408701611d62565b94979396509394606081013594506080013592915050565b602080825282518282018190526000919060409081850190868401855b8281101561209c57815180518552868101516001600160a01b0316878601528581015186860152606080820151908601526080908101519085015260a0909301929085019060010161204f565b5091979650505050505050565b6000806000606084860312156120be57600080fd5b6120c784611d62565b92506120d560208501611d62565b9150604084013590509250925092565b634e487b7160e01b600052602160045260246000fd5b6002811061210b5761210b6120e5565b9052565b6001600160a01b038716815260c081016005871061212f5761212f6120e5565b86602083015261214260408301876120fb565b8460608301528360808301528260a0830152979650505050505050565b602081526000611d946020830184611f13565b634e487b7160e01b600052601160045260246000fd5b8181038181111561086757610867612172565b602080825260159082015274082e4e4c2f240d8cadccee8d040dad2e6dac2e8c6d605b1b604082015260600190565b634e487b7160e01b600052603260045260246000fd5b6000600182016121f2576121f2612172565b5060010190565b634e487b7160e01b600052604160045260246000fd5b60006020828403121561222157600080fd5b5051919050565b8082018082111561086757610867612172565b6060810161224982866120fb565b60208201939093526040015291905056fe9b779b17422d0df92223018b32b4d1fa46e071723d6817e2486d003becc55f00a2646970667358221220c4c6e3ed0c17c58fceac566beb3438976e7a605325a0396cc7a16e718c9d518164736f6c63430008140033","linkReferences":{}},"methodIdentifiers":{"MAX_ORDER_AMOUNT()":"9c3619cf","MIN_ORDER_AMOUNT()":"40bf2aa4","ORDER_EXPIRY_TIME()":"95c3c6ed","USDT()":"c54e44eb","acceptOwnership()":"79ba5097","batchFillAndRelease(uint256[],uint256[],address[],uint256[],bytes32[])":"552e8d9b","bridgeRelayer()":"7f6577b6","cancelOrder(uint256)":"514fcac7","createBuyOrder(uint256)":"84ce1bfc","fillAndRelease(uint256,uint256,address,uint256,bytes32)":"a4d876a9","getOpenOrders(uint256,uint256)":"65fa9cda","getOrder(uint256)":"d09ef241","getOrderCount()":"8d0a5fbb","getOrderDetails(uint256)":"ec7dd7bb","getOrderFills(uint256)":"b911d64b","getUserLockedAmount(address)":"ae36935d","getUserOrderIds(address)":"ec641a1d","isDscOrderUsed(uint256,uint256)":"61ff648b","owner()":"8da5cb5b","pause()":"8456cb59","paused()":"5c975abb","pendingOwner()":"e30c3978","renounceOwnership()":"715018a6","rescueTokens(address,address,uint256)":"cea9d26f","setBridgeRelayer(address)":"20d153b5","totalLocked()":"56891412","transferOwnership(address)":"f2fde38b","unpause()":"3f4ba83a"},"id":42}