{"abi":[{"type":"constructor","inputs":[{"name":"_owner","type":"address","internalType":"address"}],"stateMutability":"nonpayable"},{"type":"function","name":"MAX_TIMELOCK","inputs":[],"outputs":[{"name":"","type":"uint256","internalType":"uint256"}],"stateMutability":"view"},{"type":"function","name":"MIN_TIMELOCK","inputs":[],"outputs":[{"name":"","type":"uint256","internalType":"uint256"}],"stateMutability":"view"},{"type":"function","name":"canClaim","inputs":[{"name":"lockId","type":"bytes32","internalType":"bytes32"}],"outputs":[{"name":"","type":"bool","internalType":"bool"}],"stateMutability":"view"},{"type":"function","name":"canRefund","inputs":[{"name":"lockId","type":"bytes32","internalType":"bytes32"}],"outputs":[{"name":"","type":"bool","internalType":"bool"}],"stateMutability":"view"},{"type":"function","name":"claim","inputs":[{"name":"lockId","type":"bytes32","internalType":"bytes32"},{"name":"secret","type":"bytes32","internalType":"bytes32"}],"outputs":[],"stateMutability":"nonpayable"},{"type":"function","name":"computeHashLock","inputs":[{"name":"secret","type":"bytes32","internalType":"bytes32"}],"outputs":[{"name":"","type":"bytes32","internalType":"bytes32"}],"stateMutability":"pure"},{"type":"function","name":"getLock","inputs":[{"name":"lockId","type":"bytes32","internalType":"bytes32"}],"outputs":[{"name":"","type":"tuple","internalType":"struct IP2PEscrowHTLC.Lock","components":[{"name":"orderId","type":"uint256","internalType":"uint256"},{"name":"depositor","type":"address","internalType":"address"},{"name":"recipient","type":"address","internalType":"address"},{"name":"token","type":"address","internalType":"address"},{"name":"amount","type":"uint256","internalType":"uint256"},{"name":"hashLock","type":"bytes32","internalType":"bytes32"},{"name":"timelock","type":"uint256","internalType":"uint256"},{"name":"claimed","type":"bool","internalType":"bool"},{"name":"refunded","type":"bool","internalType":"bool"}]}],"stateMutability":"view"},{"type":"function","name":"getLockId","inputs":[{"name":"orderId","type":"uint256","internalType":"uint256"},{"name":"depositor","type":"address","internalType":"address"},{"name":"hashLock","type":"bytes32","internalType":"bytes32"}],"outputs":[{"name":"","type":"bytes32","internalType":"bytes32"}],"stateMutability":"pure"},{"type":"function","name":"lock","inputs":[{"name":"orderId","type":"uint256","internalType":"uint256"},{"name":"recipient","type":"address","internalType":"address"},{"name":"token","type":"address","internalType":"address"},{"name":"amount","type":"uint256","internalType":"uint256"},{"name":"hashLock","type":"bytes32","internalType":"bytes32"},{"name":"timelock","type":"uint256","internalType":"uint256"}],"outputs":[{"name":"lockId","type":"bytes32","internalType":"bytes32"}],"stateMutability":"nonpayable"},{"type":"function","name":"locks","inputs":[{"name":"","type":"bytes32","internalType":"bytes32"}],"outputs":[{"name":"orderId","type":"uint256","internalType":"uint256"},{"name":"depositor","type":"address","internalType":"address"},{"name":"recipient","type":"address","internalType":"address"},{"name":"token","type":"address","internalType":"address"},{"name":"amount","type":"uint256","internalType":"uint256"},{"name":"hashLock","type":"bytes32","internalType":"bytes32"},{"name":"timelock","type":"uint256","internalType":"uint256"},{"name":"claimed","type":"bool","internalType":"bool"},{"name":"refunded","type":"bool","internalType":"bool"}],"stateMutability":"view"},{"type":"function","name":"owner","inputs":[],"outputs":[{"name":"","type":"address","internalType":"address"}],"stateMutability":"view"},{"type":"function","name":"pause","inputs":[],"outputs":[],"stateMutability":"nonpayable"},{"type":"function","name":"paused","inputs":[],"outputs":[{"name":"","type":"bool","internalType":"bool"}],"stateMutability":"view"},{"type":"function","name":"refund","inputs":[{"name":"lockId","type":"bytes32","internalType":"bytes32"}],"outputs":[],"stateMutability":"nonpayable"},{"type":"function","name":"renounceOwnership","inputs":[],"outputs":[],"stateMutability":"nonpayable"},{"type":"function","name":"transferOwnership","inputs":[{"name":"newOwner","type":"address","internalType":"address"}],"outputs":[],"stateMutability":"nonpayable"},{"type":"function","name":"unpause","inputs":[],"outputs":[],"stateMutability":"nonpayable"},{"type":"event","name":"Claimed","inputs":[{"name":"lockId","type":"bytes32","indexed":true,"internalType":"bytes32"},{"name":"orderId","type":"uint256","indexed":true,"internalType":"uint256"},{"name":"recipient","type":"address","indexed":true,"internalType":"address"},{"name":"hashLock","type":"bytes32","indexed":false,"internalType":"bytes32"}],"anonymous":false},{"type":"event","name":"Locked","inputs":[{"name":"lockId","type":"bytes32","indexed":true,"internalType":"bytes32"},{"name":"orderId","type":"uint256","indexed":true,"internalType":"uint256"},{"name":"depositor","type":"address","indexed":true,"internalType":"address"},{"name":"recipient","type":"address","indexed":false,"internalType":"address"},{"name":"token","type":"address","indexed":false,"internalType":"address"},{"name":"amount","type":"uint256","indexed":false,"internalType":"uint256"},{"name":"hashLock","type":"bytes32","indexed":false,"internalType":"bytes32"},{"name":"timelock","type":"uint256","indexed":false,"internalType":"uint256"}],"anonymous":false},{"type":"event","name":"OwnershipTransferred","inputs":[{"name":"previousOwner","type":"address","indexed":true,"internalType":"address"},{"name":"newOwner","type":"address","indexed":true,"internalType":"address"}],"anonymous":false},{"type":"event","name":"Paused","inputs":[{"name":"account","type":"address","indexed":false,"internalType":"address"}],"anonymous":false},{"type":"event","name":"Refunded","inputs":[{"name":"lockId","type":"bytes32","indexed":true,"internalType":"bytes32"},{"name":"orderId","type":"uint256","indexed":true,"internalType":"uint256"},{"name":"depositor","type":"address","indexed":true,"internalType":"address"},{"name":"hashLock","type":"bytes32","indexed":false,"internalType":"bytes32"}],"anonymous":false},{"type":"event","name":"Unpaused","inputs":[{"name":"account","type":"address","indexed":false,"internalType":"address"}],"anonymous":false},{"type":"error","name":"AlreadyClaimed","inputs":[]},{"type":"error","name":"AlreadyRefunded","inputs":[]},{"type":"error","name":"EnforcedPause","inputs":[]},{"type":"error","name":"ExpectedPause","inputs":[]},{"type":"error","name":"InvalidAmount","inputs":[]},{"type":"error","name":"InvalidHashLock","inputs":[]},{"type":"error","name":"InvalidSecret","inputs":[]},{"type":"error","name":"InvalidTimelock","inputs":[]},{"type":"error","name":"LockAlreadyExists","inputs":[]},{"type":"error","name":"LockNotFound","inputs":[]},{"type":"error","name":"NotDepositor","inputs":[]},{"type":"error","name":"NotRecipient","inputs":[]},{"type":"error","name":"OwnableInvalidOwner","inputs":[{"name":"owner","type":"address","internalType":"address"}]},{"type":"error","name":"OwnableUnauthorizedAccount","inputs":[{"name":"account","type":"address","internalType":"address"}]},{"type":"error","name":"ReentrancyGuardReentrantCall","inputs":[]},{"type":"error","name":"SafeERC20FailedOperation","inputs":[{"name":"token","type":"address","internalType":"address"}]},{"type":"error","name":"TimelockExpired","inputs":[]},{"type":"error","name":"TimelockNotExpired","inputs":[]},{"type":"error","name":"TransferFailed","inputs":[]}],"bytecode":{"object":"0x608060405234801561001057600080fd5b506040516111b93803806111b983398101604081905261002f916100eb565b8060017f9b779b17422d0df92223018b32b4d1fa46e071723d6817e2486d003becc55f00556001600160a01b03811661008257604051631e4fbdf760e01b81526000600482015260240160405180910390fd5b61008b81610092565b505061011b565b600080546001600160a01b03838116610100818102610100600160a81b0319851617855560405193049190911692909183917f8be0079c531659141344cd1fd0a4f28419497f9722a3daafe3b4186f6b6457e091a35050565b6000602082840312156100fd57600080fd5b81516001600160a01b038116811461011457600080fd5b9392505050565b61108f8061012a6000396000f3fe608060405234801561001057600080fd5b506004361061010b5760003560e01c806384cc9dfb116100a2578063d6f27b5811610071578063d6f27b58146101f9578063eaaa98fa146102ed578063ed5e843714610300578063f2fde38b146103c1578063fb0c7549146103d457600080fd5b806384cc9dfb146101a05780638c8c2003146101b35780638da5cb5b146101c657806394f1825b146101ef57600080fd5b8063715018a6116100de578063715018a61461016a5780637249fbb61461017257806378db7dc5146101855780638456cb591461019857600080fd5b80633f4ba83a1461011057806355023a341461011a5780635c975abb146101405780635e66f28114610157575b600080fd5b6101186103dd565b005b61012d610128366004610e94565b6103ef565b6040519081526020015b60405180910390f35b60005460ff165b6040519015158152602001610137565b61012d610165366004610ec9565b610421565b610118610732565b610118610180366004610e94565b610744565b61012d610193366004610f21565b6108a5565b6101186108ee565b6101186101ae366004610f56565b6108fe565b6101476101c1366004610e94565b610aa2565b60005461010090046001600160a01b03166040516001600160a01b039091168152602001610137565b61012d62278d0081565b6102e0610207366004610e94565b6040805161012081018252600080825260208201819052918101829052606081018290526080810182905260a0810182905260c0810182905260e081018290526101008101919091525060009081526001602081815260409283902083516101208101855281548152928101546001600160a01b03908116928401929092526002810154821693830193909352600383015416606082015260048201546080820152600582015460a0820152600682015460c082015260079091015460ff808216151560e0840152610100918290041615159082015290565b6040516101379190610f78565b6101476102fb366004610e94565b610aff565b61036c61030e366004610e94565b6001602081905260009182526040909120805491810154600282015460038301546004840154600585015460068601546007909601546001600160a01b03958616969486169590931693919290919060ff8082169161010090041689565b60408051998a526001600160a01b0398891660208b015296881696890196909652959093166060870152608086019190915260a085015260c084015290151560e0830152151561010082015261012001610137565b6101186103cf366004610ff7565b610b58565b61012d610e1081565b6103e5610b98565b6103ed610bcb565b565b60008160405160200161040491815260200190565b604051602081830303815290604052805190602001209050919050565b600061042b610c1d565b610433610c39565b836000036104545760405163162908e360e11b815260040160405180910390fd5b826104725760405163bc5ed0b360e01b815260040160405180910390fd5b6001600160a01b0386166104995760405163162908e360e11b815260040160405180910390fd5b60006104a54284611012565b905042831115806104b75750610e1081105b806104c4575062278d0081115b156104e257604051637c68874160e11b815260040160405180910390fd5b6104ed8833866108a5565b600081815260016020819052604090912001549092506001600160a01b03161561052a5760405163748d150960e01b815260040160405180910390fd5b604051806101200160405280898152602001336001600160a01b03168152602001886001600160a01b03168152602001876001600160a01b0316815260200186815260200185815260200184815260200160001515815260200160001515815250600160008481526020019081526020016000206000820151816000015560208201518160010160006101000a8154816001600160a01b0302191690836001600160a01b0316021790555060408201518160020160006101000a8154816001600160a01b0302191690836001600160a01b0316021790555060608201518160030160006101000a8154816001600160a01b0302191690836001600160a01b031602179055506080820151816004015560a0820151816005015560c0820151816006015560e08201518160070160006101000a81548160ff0219169083151502179055506101008201518160070160016101000a81548160ff0219169083151502179055509050506106b1333087896001600160a01b0316610c5d909392919063ffffffff16565b604080516001600160a01b0389811682528816602082015290810186905260608101859052608081018490523390899084907f1b8d60580f1cd36f94a6f400c8471a913abe431374efc7adefaf83a33de495c59060a00160405180910390a450610728600160008051602061103a83398151915255565b9695505050505050565b61073a610b98565b6103ed6000610c99565b61074c610c1d565b6000818152600160208190526040909120908101546001600160a01b031661078757604051636086ee6f60e11b815260040160405180910390fd5b600781015460ff16156107ad57604051630c8d9eab60e31b815260040160405180910390fd5b6007810154610100900460ff16156107d85760405163542f378d60e11b815260040160405180910390fd5b80600601544210156107fd5760405163621e25c360e01b815260040160405180910390fd5b6001810154600382015460048301546005840154845460078601805461ff0019166101001790556001600160a01b03948516949390931692610840848685610cf2565b846001600160a01b031681887f211604ee288f0022e1629408f3ed2cc45afd85a51521a2ad5d56e3404d9b4a788560405161087d91815260200190565b60405180910390a45050505050506108a2600160008051602061103a83398151915255565b50565b6040805160208082019590955260609390931b6bffffffffffffffffffffffff191683820152605480840192909252805180840390920182526074909201909152805191012090565b6108f6610b98565b6103ed610d2c565b610906610c1d565b6000828152600160208190526040909120908101546001600160a01b031661094157604051636086ee6f60e11b815260040160405180910390fd5b600781015460ff161561096757604051630c8d9eab60e31b815260040160405180910390fd5b6007810154610100900460ff16156109925760405163542f378d60e11b815260040160405180910390fd5b806006015442106109b657604051633d37e55360e11b815260040160405180910390fd5b600581015460408051602081018590520160405160208183030381529060405280519060200120146109fb5760405163abab6bd760e01b815260040160405180910390fd5b6002810154600382015460048301546005840154845460078601805460ff191660011790556001600160a01b03948516949390931692610a3c848685610cf2565b846001600160a01b031681897fabe3bed2a8590dd123c1a018888bce6142d526741bed65dfe570fb223525c6a485604051610a7991815260200190565b60405180910390a4505050505050610a9e600160008051602061103a83398151915255565b5050565b60008181526001602081905260408220908101546001600160a01b031615801590610ad25750600781015460ff16155b8015610ae857506007810154610100900460ff16155b8015610af8575080600601544210155b9392505050565b60008181526001602081905260408220908101546001600160a01b031615801590610b2f5750600781015460ff16155b8015610b4557506007810154610100900460ff16155b8015610af8575060060154421092915050565b610b60610b98565b6001600160a01b038116610b8f57604051631e4fbdf760e01b8152600060048201526024015b60405180910390fd5b6108a281610c99565b6000546001600160a01b036101009091041633146103ed5760405163118cdaa760e01b8152336004820152602401610b86565b610bd3610d69565b6000805460ff191690557f5db9ee0a495bf2e6ff9c91a7834c1ba4fdd244a5e8aa4e537bd38aeae4b073aa335b6040516001600160a01b03909116815260200160405180910390a1565b610c25610d8c565b600260008051602061103a83398151915255565b60005460ff16156103ed5760405163d93c066560e01b815260040160405180910390fd5b610c6b848484846001610dbc565b610c9357604051635274afe760e01b81526001600160a01b0385166004820152602401610b86565b50505050565b600080546001600160a01b03838116610100818102610100600160a81b0319851617855560405193049190911692909183917f8be0079c531659141344cd1fd0a4f28419497f9722a3daafe3b4186f6b6457e091a35050565b610cff8383836001610e2e565b610d2757604051635274afe760e01b81526001600160a01b0384166004820152602401610b86565b505050565b610d34610c39565b6000805460ff191660011790557f62e78cea01bee320cd4e420270b5ea74000d11b0c9f74754ebdbfc544b05a258610c003390565b60005460ff166103ed57604051638dfc202b60e01b815260040160405180910390fd5b60008051602061103a833981519152546002036103ed57604051633ee5aeb560e01b815260040160405180910390fd5b6040516323b872dd60e01b60008181526001600160a01b038781166004528616602452604485905291602083606481808c5af192506001600051148316610e1c578383151615610e0f573d6000823e3d81fd5b6000883b113d1516831692505b60405250600060605295945050505050565b60405163a9059cbb60e01b60008181526001600160a01b038616600452602485905291602083604481808b5af192506001600051148316610e88578383151615610e7b573d6000823e3d81fd5b6000873b113d1516831692505b60405250949350505050565b600060208284031215610ea657600080fd5b5035919050565b80356001600160a01b0381168114610ec457600080fd5b919050565b60008060008060008060c08789031215610ee257600080fd5b86359550610ef260208801610ead565b9450610f0060408801610ead565b9350606087013592506080870135915060a087013590509295509295509295565b600080600060608486031215610f3657600080fd5b83359250610f4660208501610ead565b9150604084013590509250925092565b60008060408385031215610f6957600080fd5b50508035926020909101359150565b815181526020808301516001600160a01b039081169183019190915260408084015182169083015260608084015191821690830152610120820190506080830151608083015260a083015160a083015260c083015160c083015260e0830151610fe560e084018215159052565b50610100928301511515919092015290565b60006020828403121561100957600080fd5b610af882610ead565b8181038181111561103357634e487b7160e01b600052601160045260246000fd5b9291505056fe9b779b17422d0df92223018b32b4d1fa46e071723d6817e2486d003becc55f00a264697066735822122012bcbe04882f87448a464bde45cf2f7fec984b5f18e29ce2e43569ad054ece5564736f6c63430008140033","linkReferences":{}},"methodIdentifiers":{"MAX_TIMELOCK()":"94f1825b","MIN_TIMELOCK()":"fb0c7549","canClaim(bytes32)":"eaaa98fa","canRefund(bytes32)":"8c8c2003","claim(bytes32,bytes32)":"84cc9dfb","computeHashLock(bytes32)":"55023a34","getLock(bytes32)":"d6f27b58","getLockId(uint256,address,bytes32)":"78db7dc5","lock(uint256,address,address,uint256,bytes32,uint256)":"5e66f281","locks(bytes32)":"ed5e8437","owner()":"8da5cb5b","pause()":"8456cb59","paused()":"5c975abb","refund(bytes32)":"7249fbb6","renounceOwnership()":"715018a6","transferOwnership(address)":"f2fde38b","unpause()":"3f4ba83a"},"id":39}