{"abi":[{"type":"constructor","inputs":[{"name":"_usdt","type":"address","internalType":"address"},{"name":"_bridgeRelayer","type":"address","internalType":"address"}],"stateMutability":"nonpayable"},{"type":"function","name":"EMERGENCY_WITHDRAW_DELAY","inputs":[],"outputs":[{"name":"","type":"uint256","internalType":"uint256"}],"stateMutability":"view"},{"type":"function","name":"FIXED_PRICE","inputs":[],"outputs":[{"name":"","type":"uint256","internalType":"uint256"}],"stateMutability":"view"},{"type":"function","name":"MAX_EXPIRY_TIME","inputs":[],"outputs":[{"name":"","type":"uint256","internalType":"uint256"}],"stateMutability":"view"},{"type":"function","name":"MAX_ORDER_AMOUNT","inputs":[],"outputs":[{"name":"","type":"uint256","internalType":"uint256"}],"stateMutability":"view"},{"type":"function","name":"MIN_EXPIRY_TIME","inputs":[],"outputs":[{"name":"","type":"uint256","internalType":"uint256"}],"stateMutability":"view"},{"type":"function","name":"MIN_ORDER_AMOUNT","inputs":[],"outputs":[{"name":"","type":"uint256","internalType":"uint256"}],"stateMutability":"view"},{"type":"function","name":"USDT","inputs":[],"outputs":[{"name":"","type":"address","internalType":"contract IERC20"}],"stateMutability":"view"},{"type":"function","name":"acceptOwnership","inputs":[],"outputs":[],"stateMutability":"nonpayable"},{"type":"function","name":"activateEmergencyMode","inputs":[],"outputs":[],"stateMutability":"nonpayable"},{"type":"function","name":"bridgeRelayer","inputs":[],"outputs":[{"name":"","type":"address","internalType":"address"}],"stateMutability":"view"},{"type":"function","name":"bridgeRelayerChangeTime","inputs":[],"outputs":[{"name":"","type":"uint256","internalType":"uint256"}],"stateMutability":"view"},{"type":"function","name":"cancelBridgeRelayerChange","inputs":[],"outputs":[],"stateMutability":"nonpayable"},{"type":"function","name":"cancelOrder","inputs":[{"name":"orderId","type":"uint256","internalType":"uint256"}],"outputs":[],"stateMutability":"nonpayable"},{"type":"function","name":"completeBridgeRelayerChange","inputs":[],"outputs":[],"stateMutability":"nonpayable"},{"type":"function","name":"completeOrder","inputs":[{"name":"orderId","type":"uint256","internalType":"uint256"},{"name":"seller","type":"address","internalType":"address"},{"name":"dscTxHash","type":"bytes32","internalType":"bytes32"}],"outputs":[],"stateMutability":"nonpayable"},{"type":"function","name":"createBuyOrder","inputs":[{"name":"amount","type":"uint256","internalType":"uint256"}],"outputs":[{"name":"orderId","type":"uint256","internalType":"uint256"}],"stateMutability":"nonpayable"},{"type":"function","name":"deactivateEmergencyMode","inputs":[],"outputs":[],"stateMutability":"nonpayable"},{"type":"function","name":"emergencyMode","inputs":[],"outputs":[{"name":"","type":"bool","internalType":"bool"}],"stateMutability":"view"},{"type":"function","name":"emergencyModeActivatedAt","inputs":[],"outputs":[{"name":"","type":"uint256","internalType":"uint256"}],"stateMutability":"view"},{"type":"function","name":"emergencyWithdraw","inputs":[{"name":"to","type":"address","internalType":"address"}],"outputs":[],"stateMutability":"nonpayable"},{"type":"function","name":"getOpenOrders","inputs":[{"name":"offset","type":"uint256","internalType":"uint256"},{"name":"limit","type":"uint256","internalType":"uint256"}],"outputs":[{"name":"orderIds","type":"uint256[]","internalType":"uint256[]"},{"name":"buyers","type":"address[]","internalType":"address[]"},{"name":"amounts","type":"uint256[]","internalType":"uint256[]"},{"name":"expiresAts","type":"uint256[]","internalType":"uint256[]"}],"stateMutability":"view"},{"type":"function","name":"getOrder","inputs":[{"name":"orderId","type":"uint256","internalType":"uint256"}],"outputs":[{"name":"buyer","type":"address","internalType":"address"},{"name":"status","type":"uint8","internalType":"enum P2PVaultBSC.OrderStatus"},{"name":"amount","type":"uint256","internalType":"uint256"},{"name":"createdAt","type":"uint256","internalType":"uint256"},{"name":"expiresAt","type":"uint256","internalType":"uint256"},{"name":"matchedSeller","type":"address","internalType":"address"},{"name":"matchedAt","type":"uint256","internalType":"uint256"},{"name":"dscTxHash","type":"bytes32","internalType":"bytes32"}],"stateMutability":"view"},{"type":"function","name":"getOrderCount","inputs":[],"outputs":[{"name":"","type":"uint256","internalType":"uint256"}],"stateMutability":"view"},{"type":"function","name":"getUserLockedAmount","inputs":[{"name":"user","type":"address","internalType":"address"}],"outputs":[{"name":"","type":"uint256","internalType":"uint256"}],"stateMutability":"view"},{"type":"function","name":"getUserOrderIds","inputs":[{"name":"user","type":"address","internalType":"address"}],"outputs":[{"name":"","type":"uint256[]","internalType":"uint256[]"}],"stateMutability":"view"},{"type":"function","name":"initiateBridgeRelayerChange","inputs":[{"name":"newRelayer","type":"address","internalType":"address"}],"outputs":[],"stateMutability":"nonpayable"},{"type":"function","name":"matchOrder","inputs":[{"name":"orderId","type":"uint256","internalType":"uint256"},{"name":"seller","type":"address","internalType":"address"}],"outputs":[],"stateMutability":"nonpayable"},{"type":"function","name":"minTimeBetweenOrders","inputs":[],"outputs":[{"name":"","type":"uint256","internalType":"uint256"}],"stateMutability":"view"},{"type":"function","name":"orderExpiryTime","inputs":[],"outputs":[{"name":"","type":"uint256","internalType":"uint256"}],"stateMutability":"view"},{"type":"function","name":"owner","inputs":[],"outputs":[{"name":"","type":"address","internalType":"address"}],"stateMutability":"view"},{"type":"function","name":"pause","inputs":[],"outputs":[],"stateMutability":"nonpayable"},{"type":"function","name":"paused","inputs":[],"outputs":[{"name":"","type":"bool","internalType":"bool"}],"stateMutability":"view"},{"type":"function","name":"pendingBridgeRelayer","inputs":[],"outputs":[{"name":"","type":"address","internalType":"address"}],"stateMutability":"view"},{"type":"function","name":"pendingOwner","inputs":[],"outputs":[{"name":"","type":"address","internalType":"address"}],"stateMutability":"view"},{"type":"function","name":"refundExpiredOrder","inputs":[{"name":"orderId","type":"uint256","internalType":"uint256"}],"outputs":[],"stateMutability":"nonpayable"},{"type":"function","name":"renounceOwnership","inputs":[],"outputs":[],"stateMutability":"nonpayable"},{"type":"function","name":"rescueTokens","inputs":[{"name":"token","type":"address","internalType":"address"},{"name":"to","type":"address","internalType":"address"},{"name":"amount","type":"uint256","internalType":"uint256"}],"outputs":[],"stateMutability":"nonpayable"},{"type":"function","name":"revertMatchedOrder","inputs":[{"name":"orderId","type":"uint256","internalType":"uint256"}],"outputs":[],"stateMutability":"nonpayable"},{"type":"function","name":"setMinTimeBetweenOrders","inputs":[{"name":"newMinTime","type":"uint256","internalType":"uint256"}],"outputs":[],"stateMutability":"nonpayable"},{"type":"function","name":"setOrderExpiryTime","inputs":[{"name":"newExpiryTime","type":"uint256","internalType":"uint256"}],"outputs":[],"stateMutability":"nonpayable"},{"type":"function","name":"totalLocked","inputs":[],"outputs":[{"name":"","type":"uint256","internalType":"uint256"}],"stateMutability":"view"},{"type":"function","name":"transferOwnership","inputs":[{"name":"newOwner","type":"address","internalType":"address"}],"outputs":[],"stateMutability":"nonpayable"},{"type":"function","name":"unpause","inputs":[],"outputs":[],"stateMutability":"nonpayable"},{"type":"event","name":"BridgeRelayerChangeInitiated","inputs":[{"name":"newRelayer","type":"address","indexed":true,"internalType":"address"},{"name":"effectiveTime","type":"uint256","indexed":false,"internalType":"uint256"}],"anonymous":false},{"type":"event","name":"BridgeRelayerChanged","inputs":[{"name":"oldRelayer","type":"address","indexed":true,"internalType":"address"},{"name":"newRelayer","type":"address","indexed":true,"internalType":"address"}],"anonymous":false},{"type":"event","name":"EmergencyModeActivated","inputs":[{"name":"timestamp","type":"uint256","indexed":false,"internalType":"uint256"}],"anonymous":false},{"type":"event","name":"EmergencyModeDeactivated","inputs":[],"anonymous":false},{"type":"event","name":"EmergencyWithdrawal","inputs":[{"name":"token","type":"address","indexed":true,"internalType":"address"},{"name":"to","type":"address","indexed":true,"internalType":"address"},{"name":"amount","type":"uint256","indexed":false,"internalType":"uint256"}],"anonymous":false},{"type":"event","name":"OrderCancelled","inputs":[{"name":"orderId","type":"uint256","indexed":true,"internalType":"uint256"},{"name":"buyer","type":"address","indexed":true,"internalType":"address"},{"name":"amount","type":"uint256","indexed":false,"internalType":"uint256"}],"anonymous":false},{"type":"event","name":"OrderCompleted","inputs":[{"name":"orderId","type":"uint256","indexed":true,"internalType":"uint256"},{"name":"buyer","type":"address","indexed":true,"internalType":"address"},{"name":"seller","type":"address","indexed":true,"internalType":"address"},{"name":"amount","type":"uint256","indexed":false,"internalType":"uint256"},{"name":"dscTxHash","type":"bytes32","indexed":false,"internalType":"bytes32"}],"anonymous":false},{"type":"event","name":"OrderCreated","inputs":[{"name":"orderId","type":"uint256","indexed":true,"internalType":"uint256"},{"name":"buyer","type":"address","indexed":true,"internalType":"address"},{"name":"amount","type":"uint256","indexed":false,"internalType":"uint256"},{"name":"expiresAt","type":"uint256","indexed":false,"internalType":"uint256"}],"anonymous":false},{"type":"event","name":"OrderExpiryTimeUpdated","inputs":[{"name":"oldTime","type":"uint256","indexed":false,"internalType":"uint256"},{"name":"newTime","type":"uint256","indexed":false,"internalType":"uint256"}],"anonymous":false},{"type":"event","name":"OrderMatched","inputs":[{"name":"orderId","type":"uint256","indexed":true,"internalType":"uint256"},{"name":"buyer","type":"address","indexed":true,"internalType":"address"},{"name":"seller","type":"address","indexed":true,"internalType":"address"},{"name":"amount","type":"uint256","indexed":false,"internalType":"uint256"}],"anonymous":false},{"type":"event","name":"OrderRefunded","inputs":[{"name":"orderId","type":"uint256","indexed":true,"internalType":"uint256"},{"name":"buyer","type":"address","indexed":true,"internalType":"address"},{"name":"amount","type":"uint256","indexed":false,"internalType":"uint256"}],"anonymous":false},{"type":"event","name":"OwnershipTransferStarted","inputs":[{"name":"previousOwner","type":"address","indexed":true,"internalType":"address"},{"name":"newOwner","type":"address","indexed":true,"internalType":"address"}],"anonymous":false},{"type":"event","name":"OwnershipTransferred","inputs":[{"name":"previousOwner","type":"address","indexed":true,"internalType":"address"},{"name":"newOwner","type":"address","indexed":true,"internalType":"address"}],"anonymous":false},{"type":"event","name":"Paused","inputs":[{"name":"account","type":"address","indexed":false,"internalType":"address"}],"anonymous":false},{"type":"event","name":"Unpaused","inputs":[{"name":"account","type":"address","indexed":false,"internalType":"address"}],"anonymous":false},{"type":"error","name":"AmountTooLarge","inputs":[{"name":"amount","type":"uint256","internalType":"uint256"},{"name":"maximum","type":"uint256","internalType":"uint256"}]},{"type":"error","name":"AmountTooSmall","inputs":[{"name":"amount","type":"uint256","internalType":"uint256"},{"name":"minimum","type":"uint256","internalType":"uint256"}]},{"type":"error","name":"BridgeRelayerChangeNotReady","inputs":[{"name":"readyTime","type":"uint256","internalType":"uint256"}]},{"type":"error","name":"BridgeRelayerChangePending","inputs":[]},{"type":"error","name":"EmergencyModeActive","inputs":[]},{"type":"error","name":"EmergencyModeNotActive","inputs":[]},{"type":"error","name":"EmergencyWithdrawTooEarly","inputs":[{"name":"allowedTime","type":"uint256","internalType":"uint256"}]},{"type":"error","name":"EnforcedPause","inputs":[]},{"type":"error","name":"ExpectedPause","inputs":[]},{"type":"error","name":"InsufficientContractBalance","inputs":[{"name":"required","type":"uint256","internalType":"uint256"},{"name":"available","type":"uint256","internalType":"uint256"}]},{"type":"error","name":"InvalidExpiryTime","inputs":[{"name":"time","type":"uint256","internalType":"uint256"}]},{"type":"error","name":"InvalidOrderStatus","inputs":[{"name":"orderId","type":"uint256","internalType":"uint256"},{"name":"current","type":"uint8","internalType":"enum P2PVaultBSC.OrderStatus"},{"name":"required","type":"uint8","internalType":"enum P2PVaultBSC.OrderStatus"}]},{"type":"error","name":"NoPendingBridgeRelayerChange","inputs":[]},{"type":"error","name":"NotAuthorized","inputs":[{"name":"caller","type":"address","internalType":"address"}]},{"type":"error","name":"NotOrderOwner","inputs":[{"name":"orderId","type":"uint256","internalType":"uint256"},{"name":"caller","type":"address","internalType":"address"},{"name":"owner","type":"address","internalType":"address"}]},{"type":"error","name":"OrderExpired","inputs":[{"name":"orderId","type":"uint256","internalType":"uint256"},{"name":"expiresAt","type":"uint256","internalType":"uint256"}]},{"type":"error","name":"OrderNotExpired","inputs":[{"name":"orderId","type":"uint256","internalType":"uint256"},{"name":"expiresAt","type":"uint256","internalType":"uint256"}]},{"type":"error","name":"OrderNotFound","inputs":[{"name":"orderId","type":"uint256","internalType":"uint256"}]},{"type":"error","name":"OwnableInvalidOwner","inputs":[{"name":"owner","type":"address","internalType":"address"}]},{"type":"error","name":"OwnableUnauthorizedAccount","inputs":[{"name":"account","type":"address","internalType":"address"}]},{"type":"error","name":"RateLimitExceeded","inputs":[{"name":"nextAllowedTime","type":"uint256","internalType":"uint256"}]},{"type":"error","name":"ReentrancyGuardReentrantCall","inputs":[]},{"type":"error","name":"SafeERC20FailedOperation","inputs":[{"name":"token","type":"address","internalType":"address"}]},{"type":"error","name":"SellerMismatch","inputs":[{"name":"expected","type":"address","internalType":"address"},{"name":"actual","type":"address","internalType":"address"}]},{"type":"error","name":"TransferFailed","inputs":[]},{"type":"error","name":"ZeroAddress","inputs":[]},{"type":"error","name":"ZeroAmount","inputs":[]}],"bytecode":{"object":"0x60a060405262015180600355600a600e553480156200001d57600080fd5b50604051620026c8380380620026c88339810160408190526200004091620001a8565b60017f9b779b17422d0df92223018b32b4d1fa46e071723d6817e2486d003becc55f005533806200008b57604051631e4fbdf760e01b81526000600482015260240160405180910390fd5b620000968162000114565b50816001600160a01b038116620000c05760405163d92e233d60e01b815260040160405180910390fd5b816001600160a01b038116620000e95760405163d92e233d60e01b815260040160405180910390fd5b50506001600160a01b03918216608052600580546001600160a01b03191691909216179055620001e0565b600180546001600160a01b03191690556200012f8162000132565b50565b600080546001600160a01b03838116610100818102610100600160a81b0319851617855560405193049190911692909183917f8be0079c531659141344cd1fd0a4f28419497f9722a3daafe3b4186f6b6457e091a35050565b80516001600160a01b0381168114620001a357600080fd5b919050565b60008060408385031215620001bc57600080fd5b620001c7836200018b565b9150620001d7602084016200018b565b90509250929050565b60805161248d6200023b600039600081816104aa015281816109b301528181610bf0015281816110a50152818161112d015281816111600152818161133a01528181611552015281816117d20152611bc9015261248d6000f3fe608060405234801561001057600080fd5b50600436106102695760003560e01c8063869cdfc311610151578063b8aeb2ec116100c3578063d009601011610087578063d0096010146104f2578063d09ef241146104fa578063e30c397814610589578063ec641a1d1461059a578063ed8d6c8f146105ba578063f2fde38b146105c357600080fd5b8063b8aeb2ec1461047f578063b979c03b14610492578063c54e44eb146104a5578063caf0d1d0146104cc578063cea9d26f146104df57600080fd5b80639c3619cf116101155780639c3619cf14610417578063a47b81d814610428578063ace8205b14610432578063ae36935d1461043a578063b1a2444514610463578063b7ad2ddf1461046c57600080fd5b8063869cdfc3146103cf5780638a4a3ecf146103de5780638d0a5fbb146103f15780638da5cb5b146103f957806399b20eaf1461040f57600080fd5b806362cf1a0d116101ea57806371a1c76d116101ae57806371a1c76d1461036457806379ba5097146103775780637be7bb2e1461037f5780637f6577b6146103895780638456cb59146103b457806384ce1bfc146103bc57600080fd5b806362cf1a0d1461030a57806365fa9cda1461031d57806368c128c9146103405780636ff1c9bc14610349578063715018a61461035c57600080fd5b80633f4ba83a116102315780633f4ba83a146102cd57806340bf2aa4146102d5578063514fcac7146102e357806356891412146102f65780635c975abb146102ff57600080fd5b80630905f5601461026e578063148f510c14610290578063236262c9146102a557806328dec416146102ad5780632b83c8f5146102c4575b600080fd5b60085461027b9060ff1681565b60405190151581526020015b60405180910390f35b6102a361029e366004612122565b6105d6565b005b6102a36107b2565b6102b660035481565b604051908152602001610287565b6102b6600e5481565b6102a3610870565b6102b666038d7ea4c6800081565b6102a36102f136600461214e565b610882565b6102b660045481565b60005460ff1661027b565b6102a3610318366004612167565b610a35565b61033061032b36600461219c565b610c8e565b60405161028794939291906121f9565b6102b660075481565b6102a3610357366004612281565b610fed565b6102a36111e0565b6102a361037236600461214e565b6111f2565b6102a36113bf565b6102b662093a8081565b60055461039c906001600160a01b031681565b6040516001600160a01b039091168152602001610287565b6102a3611400565b6102b66103ca36600461214e565b611410565b6102b6670de0b6b3a764000081565b6102a36103ec36600461214e565b61185f565b6002546102b6565b60005461010090046001600160a01b031661039c565b6102a361194e565b6102b669d3c21bcecceda100000081565b6102b66202a30081565b6102a36119b3565b6102b6610448366004612281565b6001600160a01b03166000908152600c602052604090205490565b6102b660095481565b60065461039c906001600160a01b031681565b6102a361048d36600461214e565b6119d2565b6102a36104a0366004612281565b611a52565b61039c7f000000000000000000000000000000000000000000000000000000000000000081565b6102a36104da36600461214e565b611b1b565b6102a36104ed3660046122a3565b611b67565b6102a3611cc6565b61057561050836600461214e565b6000908152600a602052604090208054600182015460028301546003909301546001600160a01b038084169560ff600160a01b9586900416956001600160601b0385169565ffffffffffff600160601b8704811696600160901b9004811695948316949190920490911691565b604051610287989796959493929190612307565b6001546001600160a01b031661039c565b6105ad6105a8366004612281565b611d1d565b604051610287919061235b565b6102b6610e1081565b6102a36105d1366004612281565b611d89565b6005546001600160a01b0316331461060857604051634a0bfec160e01b81523360048201526024015b60405180910390fd5b806001600160a01b0381166106305760405163d92e233d60e01b815260040160405180910390fd5b6000838152600a60205260408120908154600160a01b900460ff16600681111561065c5761065c6122cf565b0361067d576040516313a42eb760e21b8152600481018590526024016105ff565b60018154600160a01b900460ff16600681111561069c5761069c6122cf565b146106cd57805460405163fad5e53f60e01b81526105ff918691600160a01b90910460ff169060019060040161236e565b6001810154600160901b900465ffffffffffff1642111561071e576001810154604051634b2d84db60e01b815260048101869052600160901b90910465ffffffffffff1660248201526044016105ff565b805460ff60a01b198116600160a11b1782556002820180546001600160a01b038681166001600160d01b03199092168217600160a01b4265ffffffffffff1602179092556001840154604080516001600160601b039092168252519193929092169187917f3d7463b72b52fafc8e3f27dc0dbb9d1a94c0a4024834252b5cce68509acb49bc9181900360200190a450505050565b6107ba611e00565b6006546001600160a01b03166107e3576040516331db6d8160e11b815260040160405180910390fd5b60075442101561080c57600754604051631af5dcd960e01b81526004016105ff91815260200190565b60058054600680546001600160a01b03198084166001600160a01b038381169182179096559116909155600060078190556040519390921692909183917f44193f4ab9c70ae39b438efa955b66a66520bed79eebf7aab85be33e7de03a899190a350565b610878611e00565b610880611e33565b565b61088a611e80565b6000818152600a60205260408120908154600160a01b900460ff1660068111156108b6576108b66122cf565b036108d7576040516313a42eb760e21b8152600481018390526024016105ff565b80546001600160a01b0316331461091c578054604051630e32172960e41b8152600481018490523360248201526001600160a01b0390911660448201526064016105ff565b60018154600160a01b900460ff16600681111561093b5761093b6122cf565b1461096c57805460405163fad5e53f60e01b81526105ff918491600160a01b90910460ff169060019060040161236e565b6001810154815460ff60a01b1916600160a21b178255336000818152600c6020526040902080546001600160601b039093169283900390556004805483900390556109e2907f00000000000000000000000000000000000000000000000000000000000000006001600160a01b03169083611e9c565b604051818152339084907fc4058ebc534b64ecb27b2d4eaa1904f98997ec18ebe6ada4117593dde89478cc9060200160405180910390a35050610a32600160008051602061243883398151915255565b50565b6005546001600160a01b03163314610a6257604051634a0bfec160e01b81523360048201526024016105ff565b610a6a611e80565b816001600160a01b038116610a925760405163d92e233d60e01b815260040160405180910390fd5b6000848152600a60205260408120908154600160a01b900460ff166006811115610abe57610abe6122cf565b03610adf576040516313a42eb760e21b8152600481018690526024016105ff565b60028154600160a01b900460ff166006811115610afe57610afe6122cf565b14610b2f57805460405163fad5e53f60e01b81526105ff918791600160a01b90910460ff169060029060040161236e565b60028101546001600160a01b03858116911614610b7857600281015460405163636367ad60e01b81526001600160a01b03918216600482015290851660248201526044016105ff565b82610b9657604051631f2a200560e01b815260040160405180910390fd5b80546001820154600360a01b60ff60a01b198316178355600383018590556001600160a01b039182166000818152600c6020526040902080546001600160601b0390931692839003905560048054839003905591610c17907f0000000000000000000000000000000000000000000000000000000000000000168783611e9c565b856001600160a01b0316826001600160a01b0316887fca932494163a56b7ba8406204130d0a808f5682b942b329649b0ab1c497416898489604051610c66929190918252602082015260400190565b60405180910390a450505050610c89600160008051602061243883398151915255565b505050565b6060808080600060015b6002548111158015610cb25750610caf87896123ad565b82105b15610d355760016000828152600a6020526040902054600160a01b900460ff166006811115610ce357610ce36122cf565b148015610d1057506000818152600a6020526040902060010154600160901b900465ffffffffffff164211155b15610d235781610d1f816123c6565b9250505b80610d2d816123c6565b915050610c98565b506000878211610d46576000610d50565b610d5088836123df565b905086811115610d5d5750855b8067ffffffffffffffff811115610d7657610d766123f2565b604051908082528060200260200182016040528015610d9f578160200160208202803683370190505b5095508067ffffffffffffffff811115610dbb57610dbb6123f2565b604051908082528060200260200182016040528015610de4578160200160208202803683370190505b5094508067ffffffffffffffff811115610e0057610e006123f2565b604051908082528060200260200182016040528015610e29578160200160208202803683370190505b5093508067ffffffffffffffff811115610e4557610e456123f2565b604051908082528060200260200182016040528015610e6e578160200160208202803683370190505b50925060008060015b6002548111158015610e8857508383105b15610fdf576000818152600a6020526040902060018154600160a01b900460ff166006811115610eba57610eba6122cf565b148015610eda57506001810154600160901b900465ffffffffffff164211155b15610fcc578b831015610ef95782610ef1816123c6565b935050610fcc565b818a8581518110610f0c57610f0c612408565b6020908102919091010152805489516001600160a01b03909116908a9086908110610f3957610f39612408565b6001600160a01b0390921660209283029190910190910152600181015488516001600160601b0390911690899086908110610f7657610f76612408565b6020026020010181815250508060010160129054906101000a900465ffffffffffff1665ffffffffffff16878581518110610fb357610fb3612408565b602090810291909101015283610fc8816123c6565b9450505b5080610fd7816123c6565b915050610e77565b505050505092959194509250565b610ff5611e00565b610ffd611e80565b806001600160a01b0381166110255760405163d92e233d60e01b815260040160405180910390fd5b60085460ff166110485760405163c5cd049360e01b815260040160405180910390fd5b6202a30060095461105991906123ad565b42101561108d576202a30060095461107191906123ad565b604051633339c9a760e01b81526004016105ff91815260200190565b6040516370a0823160e01b81523060048201526000907f00000000000000000000000000000000000000000000000000000000000000006001600160a01b0316906370a0823190602401602060405180830381865afa1580156110f4573d6000803e3d6000fd5b505050506040513d601f19601f82011682018060405250810190611118919061241e565b905080156111c2576111546001600160a01b037f0000000000000000000000000000000000000000000000000000000000000000168483611e9c565b826001600160a01b03167f00000000000000000000000000000000000000000000000000000000000000006001600160a01b03167f9495d03190a79a43e534c9e328ff322f6283261383f5f19c809564f6ad5a57b3836040516111b991815260200190565b60405180910390a35b50506000600455610a32600160008051602061243883398151915255565b6111e8611e00565b6108806000611ed1565b6111fa611e80565b6000818152600a60205260408120908154600160a01b900460ff166006811115611226576112266122cf565b03611247576040516313a42eb760e21b8152600481018390526024016105ff565b60018154600160a01b900460ff166006811115611266576112666122cf565b1461129757805460405163fad5e53f60e01b81526105ff918491600160a01b90910460ff169060019060040161236e565b6001810154600160901b900465ffffffffffff1642116112e7576001810154604051630212097560e21b815260048101849052600160901b90910465ffffffffffff1660248201526044016105ff565b80546001820154600560a01b60ff60a01b1983161783556001600160a01b039182166000818152600c6020526040902080546001600160601b0390931692839003905560048054839003905591611361907f0000000000000000000000000000000000000000000000000000000000000000168383611e9c565b816001600160a01b0316847fe18debf292fbfc1f009a15d4e4932c1da2be34d7343f86f50989d09a04571e1b8360405161139d91815260200190565b60405180910390a3505050610a32600160008051602061243883398151915255565b60015433906001600160a01b031681146113f75760405163118cdaa760e01b81526001600160a01b03821660048201526024016105ff565b610a3281611ed1565b611408611e00565b610880611eea565b600061141a611e80565b611422611f27565b60085460ff1615611446576040516319e1bef560e01b815260040160405180910390fd5b818060000361146857604051631f2a200560e01b815260040160405180910390fd5b66038d7ea4c6800081101561149f57604051625a5b2760e31b81526004810182905266038d7ea4c6800060248201526044016105ff565b69d3c21bcecceda10000008111156114dd57604051637f16270360e01b81526004810182905269d3c21bcecceda100000060248201526044016105ff565b600e54336000908152600d60205260409020546114fa91906123ad565b42101561153a57600e54336000908152600d602052604090205461151e91906123ad565b604051636b77444960e01b81526004016105ff91815260200190565b6040516370a0823160e01b81523360048201526000907f00000000000000000000000000000000000000000000000000000000000000006001600160a01b0316906370a0823190602401602060405180830381865afa1580156115a1573d6000803e3d6000fd5b505050506040513d601f19601f820116820180604052508101906115c5919061241e565b9050838110156115f25760405163b7ddd88b60e01b815260048101859052602481018290526044016105ff565b336000908152600d6020526040812042905560028054909190611614906123c6565b919050819055925060006003544261162c91906123ad565b6040805161010081018252338152600160208083019182526001600160601b038a16838501524265ffffffffffff908116606085015285166080840152600060a0840181905260c0840181905260e08401819052898152600a90915292909220815181546001600160a01b031981166001600160a01b039092169182178355935194955091939092909183916001600160a81b03191617600160a01b8360068111156116da576116da6122cf565b0217905550604082810151600180840180546060870151608088015165ffffffffffff908116600160901b0265ffffffffffff60901b19928216600160601b0271ffffffffffffffffffffffffffffffffffff199094166001600160601b0390971696909617929092171693909317905560a085015160028501805460c0880151909416600160a01b026001600160d01b03199094166001600160a01b03928316179390931790925560e090940151600390930192909255336000818152600b6020908152838220805496870181558252808220909501899055818152600c909452922080548801905560048054880190556117fc917f0000000000000000000000000000000000000000000000000000000000000000909116903088611f4b565b6040805186815265ffffffffffff83166020820152339186917ff7c110a6973307f2bc91245c2c06344ada13add2c1741e83ac5c0bb332bc85d5910160405180910390a350505061185a600160008051602061243883398151915255565b919050565b6005546001600160a01b0316331461188c57604051634a0bfec160e01b81523360048201526024016105ff565b6000818152600a60205260408120908154600160a01b900460ff1660068111156118b8576118b86122cf565b036118d9576040516313a42eb760e21b8152600481018390526024016105ff565b60028154600160a01b900460ff1660068111156118f8576118f86122cf565b1461192957805460405163fad5e53f60e01b81526105ff918491600160a01b90910460ff169060029060040161236e565b805460ff60a01b1916600160a01b17815560020180546001600160d01b031916905550565b611956611e00565b60085460ff166119795760405163c5cd049360e01b815260040160405180910390fd5b6008805460ff19169055600060098190556040517f70b9dcaceb756943ac1a4f48b8df9ea82fbb012b87e405cba4ed77d1ded0df419190a1565b6119bb611e00565b600680546001600160a01b03191690556000600755565b6119da611e00565b610e108110806119ec575062093a8081115b15611a0d576040516307dc928360e31b8152600481018290526024016105ff565b600380549082905560408051828152602081018490527f62a1bca69b22cde9653b0af9f58178fdcbb292ff41a3cf054839b8e13768bb43910160405180910390a15050565b611a5a611e00565b806001600160a01b038116611a825760405163d92e233d60e01b815260040160405180910390fd5b6006546001600160a01b031615611aac5760405163a85c7c8760e01b815260040160405180910390fd5b600680546001600160a01b0319166001600160a01b038416179055611ad442620151806123ad565b60078190556040519081526001600160a01b038316907f0eaaa1d802c9f647234d55e39326c1f9d345e9a82b575740126e83044e60cdd49060200160405180910390a25050565b611b23611e00565b610e10811115611b625760405162461bcd60e51b815260206004820152600a60248201526926b0bc1018903437bab960b11b60448201526064016105ff565b600e55565b611b6f611e00565b611b77611e80565b826001600160a01b038116611b9f5760405163d92e233d60e01b815260040160405180910390fd5b826001600160a01b038116611bc75760405163d92e233d60e01b815260040160405180910390fd5b7f00000000000000000000000000000000000000000000000000000000000000006001600160a01b0316856001600160a01b031603611c4c5760085460ff16611c235760405163c5cd049360e01b815260040160405180910390fd5b6202a300600954611c3491906123ad565b421015611c4c576202a30060095461107191906123ad565b611c606001600160a01b0386168585611e9c565b836001600160a01b0316856001600160a01b03167f9495d03190a79a43e534c9e328ff322f6283261383f5f19c809564f6ad5a57b385604051611ca591815260200190565b60405180910390a35050610c89600160008051602061243883398151915255565b611cce611e00565b6008805460ff1916600117905542600955611ce7611eea565b6040514281527f5fa9abb83376468762d4533d9cd0a8f21edf0033fa06b47347578fb235a92edc906020015b60405180910390a1565b6001600160a01b0381166000908152600b6020908152604091829020805483518184028101840190945280845260609392830182828015611d7d57602002820191906000526020600020905b815481526020019060010190808311611d69575b50505050509050919050565b611d91611e00565b600180546001600160a01b0383166001600160a01b03199091168117909155611dc86000546001600160a01b036101009091041690565b6001600160a01b03167f38d16b8cac22d99fc7c124b9cd0de2d3fa1faef420bfe791d8c362d765e2270060405160405180910390a350565b6000546001600160a01b036101009091041633146108805760405163118cdaa760e01b81523360048201526024016105ff565b611e3b611f87565b6000805460ff191690557f5db9ee0a495bf2e6ff9c91a7834c1ba4fdd244a5e8aa4e537bd38aeae4b073aa335b6040516001600160a01b039091168152602001611d13565b611e88611faa565b600260008051602061243883398151915255565b611ea98383836001611fda565b610c8957604051635274afe760e01b81526001600160a01b03841660048201526024016105ff565b600180546001600160a01b0319169055610a3281612040565b611ef2611f27565b6000805460ff191660011790557f62e78cea01bee320cd4e420270b5ea74000d11b0c9f74754ebdbfc544b05a258611e683390565b60005460ff16156108805760405163d93c066560e01b815260040160405180910390fd5b611f59848484846001612099565b611f8157604051635274afe760e01b81526001600160a01b03851660048201526024016105ff565b50505050565b60005460ff1661088057604051638dfc202b60e01b815260040160405180910390fd5b6000805160206124388339815191525460020361088057604051633ee5aeb560e01b815260040160405180910390fd5b60405163a9059cbb60e01b60008181526001600160a01b038616600452602485905291602083604481808b5af192506001600051148316612034578383151615612027573d6000823e3d81fd5b6000873b113d1516831692505b60405250949350505050565b600080546001600160a01b03838116610100818102610100600160a81b0319851617855560405193049190911692909183917f8be0079c531659141344cd1fd0a4f28419497f9722a3daafe3b4186f6b6457e091a35050565b6040516323b872dd60e01b60008181526001600160a01b038781166004528616602452604485905291602083606481808c5af1925060016000511483166120f95783831516156120ec573d6000823e3d81fd5b6000883b113d1516831692505b60405250600060605295945050505050565b80356001600160a01b038116811461185a57600080fd5b6000806040838503121561213557600080fd5b823591506121456020840161210b565b90509250929050565b60006020828403121561216057600080fd5b5035919050565b60008060006060848603121561217c57600080fd5b8335925061218c6020850161210b565b9150604084013590509250925092565b600080604083850312156121af57600080fd5b50508035926020909101359150565b600081518084526020808501945080840160005b838110156121ee578151875295820195908201906001016121d2565b509495945050505050565b60808152600061220c60808301876121be565b82810360208481019190915286518083528782019282019060005b8181101561224c5784516001600160a01b031683529383019391830191600101612227565b5050848103604086015261226081886121be565b92505050828103606084015261227681856121be565b979650505050505050565b60006020828403121561229357600080fd5b61229c8261210b565b9392505050565b6000806000606084860312156122b857600080fd5b6122c18461210b565b925061218c6020850161210b565b634e487b7160e01b600052602160045260246000fd5b6007811061230357634e487b7160e01b600052602160045260246000fd5b9052565b6001600160a01b038981168252610100820190612327602084018b6122e5565b88604084015287606084015286608084015280861660a0840152508360c08301528260e08301529998505050505050505050565b60208152600061229c60208301846121be565b8381526060810161238260208301856122e5565b61238f60408301846122e5565b949350505050565b634e487b7160e01b600052601160045260246000fd5b808201808211156123c0576123c0612397565b92915050565b6000600182016123d8576123d8612397565b5060010190565b818103818111156123c0576123c0612397565b634e487b7160e01b600052604160045260246000fd5b634e487b7160e01b600052603260045260246000fd5b60006020828403121561243057600080fd5b505191905056fe9b779b17422d0df92223018b32b4d1fa46e071723d6817e2486d003becc55f00a264697066735822122084fd0a2267d1457ec06c7a3922737ebc4d4fb7366f0e10c2903568bfafb38e3964736f6c63430008140033","linkReferences":{}},"methodIdentifiers":{"EMERGENCY_WITHDRAW_DELAY()":"a47b81d8","FIXED_PRICE()":"869cdfc3","MAX_EXPIRY_TIME()":"7be7bb2e","MAX_ORDER_AMOUNT()":"9c3619cf","MIN_EXPIRY_TIME()":"ed8d6c8f","MIN_ORDER_AMOUNT()":"40bf2aa4","USDT()":"c54e44eb","acceptOwnership()":"79ba5097","activateEmergencyMode()":"d0096010","bridgeRelayer()":"7f6577b6","bridgeRelayerChangeTime()":"68c128c9","cancelBridgeRelayerChange()":"ace8205b","cancelOrder(uint256)":"514fcac7","completeBridgeRelayerChange()":"236262c9","completeOrder(uint256,address,bytes32)":"62cf1a0d","createBuyOrder(uint256)":"84ce1bfc","deactivateEmergencyMode()":"99b20eaf","emergencyMode()":"0905f560","emergencyModeActivatedAt()":"b1a24445","emergencyWithdraw(address)":"6ff1c9bc","getOpenOrders(uint256,uint256)":"65fa9cda","getOrder(uint256)":"d09ef241","getOrderCount()":"8d0a5fbb","getUserLockedAmount(address)":"ae36935d","getUserOrderIds(address)":"ec641a1d","initiateBridgeRelayerChange(address)":"b979c03b","matchOrder(uint256,address)":"148f510c","minTimeBetweenOrders()":"2b83c8f5","orderExpiryTime()":"28dec416","owner()":"8da5cb5b","pause()":"8456cb59","paused()":"5c975abb","pendingBridgeRelayer()":"b7ad2ddf","pendingOwner()":"e30c3978","refundExpiredOrder(uint256)":"71a1c76d","renounceOwnership()":"715018a6","rescueTokens(address,address,uint256)":"cea9d26f","revertMatchedOrder(uint256)":"8a4a3ecf","setMinTimeBetweenOrders(uint256)":"caf0d1d0","setOrderExpiryTime(uint256)":"b8aeb2ec","totalLocked()":"56891412","transferOwnership(address)":"f2fde38b","unpause()":"3f4ba83a"},"id":41}