{"abi":[{"type":"constructor","inputs":[{"name":"_dep20Usdt","type":"address","internalType":"address"},{"name":"_bridgeRelayer","type":"address","internalType":"address"}],"stateMutability":"nonpayable"},{"type":"function","name":"DEP20_USDT","inputs":[],"outputs":[{"name":"","type":"address","internalType":"contract IERC20"}],"stateMutability":"view"},{"type":"function","name":"DIRECT_FILL_EXPIRY","inputs":[],"outputs":[{"name":"","type":"uint256","internalType":"uint256"}],"stateMutability":"view"},{"type":"function","name":"EMERGENCY_WITHDRAW_DELAY","inputs":[],"outputs":[{"name":"","type":"uint256","internalType":"uint256"}],"stateMutability":"view"},{"type":"function","name":"FIXED_PRICE","inputs":[],"outputs":[{"name":"","type":"uint256","internalType":"uint256"}],"stateMutability":"view"},{"type":"function","name":"MAX_EXPIRY_TIME","inputs":[],"outputs":[{"name":"","type":"uint256","internalType":"uint256"}],"stateMutability":"view"},{"type":"function","name":"MAX_ORDER_AMOUNT","inputs":[],"outputs":[{"name":"","type":"uint256","internalType":"uint256"}],"stateMutability":"view"},{"type":"function","name":"MIN_EXPIRY_TIME","inputs":[],"outputs":[{"name":"","type":"uint256","internalType":"uint256"}],"stateMutability":"view"},{"type":"function","name":"MIN_ORDER_AMOUNT","inputs":[],"outputs":[{"name":"","type":"uint256","internalType":"uint256"}],"stateMutability":"view"},{"type":"function","name":"acceptOwnership","inputs":[],"outputs":[],"stateMutability":"nonpayable"},{"type":"function","name":"activateEmergencyMode","inputs":[],"outputs":[],"stateMutability":"nonpayable"},{"type":"function","name":"bridgeRelayer","inputs":[],"outputs":[{"name":"","type":"address","internalType":"address"}],"stateMutability":"view"},{"type":"function","name":"bridgeRelayerChangeTime","inputs":[],"outputs":[{"name":"","type":"uint256","internalType":"uint256"}],"stateMutability":"view"},{"type":"function","name":"cancelBridgeRelayerChange","inputs":[],"outputs":[],"stateMutability":"nonpayable"},{"type":"function","name":"cancelSellOrder","inputs":[{"name":"orderId","type":"uint256","internalType":"uint256"}],"outputs":[],"stateMutability":"nonpayable"},{"type":"function","name":"completeBridgeRelayerChange","inputs":[],"outputs":[],"stateMutability":"nonpayable"},{"type":"function","name":"completeOrder","inputs":[{"name":"dscOrderId","type":"uint256","internalType":"uint256"},{"name":"buyer","type":"address","internalType":"address"},{"name":"bscTxHash","type":"bytes32","internalType":"bytes32"}],"outputs":[],"stateMutability":"nonpayable"},{"type":"function","name":"createSellOrder","inputs":[{"name":"amount","type":"uint256","internalType":"uint256"}],"outputs":[{"name":"orderId","type":"uint256","internalType":"uint256"}],"stateMutability":"nonpayable"},{"type":"function","name":"deactivateEmergencyMode","inputs":[],"outputs":[],"stateMutability":"nonpayable"},{"type":"function","name":"emergencyMode","inputs":[],"outputs":[{"name":"","type":"bool","internalType":"bool"}],"stateMutability":"view"},{"type":"function","name":"emergencyModeActivatedAt","inputs":[],"outputs":[{"name":"","type":"uint256","internalType":"uint256"}],"stateMutability":"view"},{"type":"function","name":"emergencyWithdraw","inputs":[{"name":"to","type":"address","internalType":"address"}],"outputs":[],"stateMutability":"nonpayable"},{"type":"function","name":"fillBscBuyOrder","inputs":[{"name":"bscOrderId","type":"uint256","internalType":"uint256"},{"name":"buyer","type":"address","internalType":"address"},{"name":"amount","type":"uint256","internalType":"uint256"}],"outputs":[{"name":"orderId","type":"uint256","internalType":"uint256"}],"stateMutability":"nonpayable"},{"type":"function","name":"getDscOrderForBscOrder","inputs":[{"name":"bscOrderId","type":"uint256","internalType":"uint256"}],"outputs":[{"name":"","type":"uint256","internalType":"uint256"}],"stateMutability":"view"},{"type":"function","name":"getOpenSellOrders","inputs":[{"name":"offset","type":"uint256","internalType":"uint256"},{"name":"limit","type":"uint256","internalType":"uint256"}],"outputs":[{"name":"orderIds","type":"uint256[]","internalType":"uint256[]"},{"name":"sellers","type":"address[]","internalType":"address[]"},{"name":"amounts","type":"uint256[]","internalType":"uint256[]"},{"name":"expiresAts","type":"uint256[]","internalType":"uint256[]"}],"stateMutability":"view"},{"type":"function","name":"getOrder","inputs":[{"name":"orderId","type":"uint256","internalType":"uint256"}],"outputs":[{"name":"seller","type":"address","internalType":"address"},{"name":"status","type":"uint8","internalType":"enum P2PVaultDSC.OrderStatus"},{"name":"orderType","type":"uint8","internalType":"enum P2PVaultDSC.OrderType"},{"name":"amount","type":"uint256","internalType":"uint256"},{"name":"createdAt","type":"uint256","internalType":"uint256"},{"name":"expiresAt","type":"uint256","internalType":"uint256"},{"name":"matchedBuyer","type":"address","internalType":"address"},{"name":"matchedBscOrderId","type":"uint256","internalType":"uint256"},{"name":"matchedAt","type":"uint256","internalType":"uint256"},{"name":"bscTxHash","type":"bytes32","internalType":"bytes32"}],"stateMutability":"view"},{"type":"function","name":"getOrderCount","inputs":[],"outputs":[{"name":"","type":"uint256","internalType":"uint256"}],"stateMutability":"view"},{"type":"function","name":"getUserLockedAmount","inputs":[{"name":"user","type":"address","internalType":"address"}],"outputs":[{"name":"","type":"uint256","internalType":"uint256"}],"stateMutability":"view"},{"type":"function","name":"getUserOrderIds","inputs":[{"name":"user","type":"address","internalType":"address"}],"outputs":[{"name":"","type":"uint256[]","internalType":"uint256[]"}],"stateMutability":"view"},{"type":"function","name":"initiateBridgeRelayerChange","inputs":[{"name":"newRelayer","type":"address","internalType":"address"}],"outputs":[],"stateMutability":"nonpayable"},{"type":"function","name":"isBscOrderMatched","inputs":[{"name":"bscOrderId","type":"uint256","internalType":"uint256"}],"outputs":[{"name":"","type":"bool","internalType":"bool"}],"stateMutability":"view"},{"type":"function","name":"matchSellOrder","inputs":[{"name":"dscOrderId","type":"uint256","internalType":"uint256"},{"name":"bscOrderId","type":"uint256","internalType":"uint256"},{"name":"buyer","type":"address","internalType":"address"}],"outputs":[],"stateMutability":"nonpayable"},{"type":"function","name":"minTimeBetweenOrders","inputs":[],"outputs":[{"name":"","type":"uint256","internalType":"uint256"}],"stateMutability":"view"},{"type":"function","name":"orderExpiryTime","inputs":[],"outputs":[{"name":"","type":"uint256","internalType":"uint256"}],"stateMutability":"view"},{"type":"function","name":"owner","inputs":[],"outputs":[{"name":"","type":"address","internalType":"address"}],"stateMutability":"view"},{"type":"function","name":"pause","inputs":[],"outputs":[],"stateMutability":"nonpayable"},{"type":"function","name":"paused","inputs":[],"outputs":[{"name":"","type":"bool","internalType":"bool"}],"stateMutability":"view"},{"type":"function","name":"pendingBridgeRelayer","inputs":[],"outputs":[{"name":"","type":"address","internalType":"address"}],"stateMutability":"view"},{"type":"function","name":"pendingOwner","inputs":[],"outputs":[{"name":"","type":"address","internalType":"address"}],"stateMutability":"view"},{"type":"function","name":"refundExpiredOrder","inputs":[{"name":"orderId","type":"uint256","internalType":"uint256"}],"outputs":[],"stateMutability":"nonpayable"},{"type":"function","name":"renounceOwnership","inputs":[],"outputs":[],"stateMutability":"nonpayable"},{"type":"function","name":"rescueTokens","inputs":[{"name":"token","type":"address","internalType":"address"},{"name":"to","type":"address","internalType":"address"},{"name":"amount","type":"uint256","internalType":"uint256"}],"outputs":[],"stateMutability":"nonpayable"},{"type":"function","name":"revertMatchedOrder","inputs":[{"name":"dscOrderId","type":"uint256","internalType":"uint256"}],"outputs":[],"stateMutability":"nonpayable"},{"type":"function","name":"setMinTimeBetweenOrders","inputs":[{"name":"newMinTime","type":"uint256","internalType":"uint256"}],"outputs":[],"stateMutability":"nonpayable"},{"type":"function","name":"setOrderExpiryTime","inputs":[{"name":"newExpiryTime","type":"uint256","internalType":"uint256"}],"outputs":[],"stateMutability":"nonpayable"},{"type":"function","name":"totalLocked","inputs":[],"outputs":[{"name":"","type":"uint256","internalType":"uint256"}],"stateMutability":"view"},{"type":"function","name":"transferOwnership","inputs":[{"name":"newOwner","type":"address","internalType":"address"}],"outputs":[],"stateMutability":"nonpayable"},{"type":"function","name":"unpause","inputs":[],"outputs":[],"stateMutability":"nonpayable"},{"type":"event","name":"BridgeRelayerChangeInitiated","inputs":[{"name":"newRelayer","type":"address","indexed":true,"internalType":"address"},{"name":"effectiveTime","type":"uint256","indexed":false,"internalType":"uint256"}],"anonymous":false},{"type":"event","name":"BridgeRelayerChanged","inputs":[{"name":"oldRelayer","type":"address","indexed":true,"internalType":"address"},{"name":"newRelayer","type":"address","indexed":true,"internalType":"address"}],"anonymous":false},{"type":"event","name":"DirectFillCreated","inputs":[{"name":"dscOrderId","type":"uint256","indexed":true,"internalType":"uint256"},{"name":"bscOrderId","type":"uint256","indexed":true,"internalType":"uint256"},{"name":"seller","type":"address","indexed":true,"internalType":"address"},{"name":"buyer","type":"address","indexed":false,"internalType":"address"},{"name":"amount","type":"uint256","indexed":false,"internalType":"uint256"}],"anonymous":false},{"type":"event","name":"EmergencyModeActivated","inputs":[{"name":"timestamp","type":"uint256","indexed":false,"internalType":"uint256"}],"anonymous":false},{"type":"event","name":"EmergencyModeDeactivated","inputs":[],"anonymous":false},{"type":"event","name":"EmergencyWithdrawal","inputs":[{"name":"token","type":"address","indexed":true,"internalType":"address"},{"name":"to","type":"address","indexed":true,"internalType":"address"},{"name":"amount","type":"uint256","indexed":false,"internalType":"uint256"}],"anonymous":false},{"type":"event","name":"OrderCancelled","inputs":[{"name":"orderId","type":"uint256","indexed":true,"internalType":"uint256"},{"name":"seller","type":"address","indexed":true,"internalType":"address"},{"name":"amount","type":"uint256","indexed":false,"internalType":"uint256"}],"anonymous":false},{"type":"event","name":"OrderCompleted","inputs":[{"name":"dscOrderId","type":"uint256","indexed":true,"internalType":"uint256"},{"name":"bscOrderId","type":"uint256","indexed":true,"internalType":"uint256"},{"name":"seller","type":"address","indexed":false,"internalType":"address"},{"name":"buyer","type":"address","indexed":true,"internalType":"address"},{"name":"amount","type":"uint256","indexed":false,"internalType":"uint256"},{"name":"bscTxHash","type":"bytes32","indexed":false,"internalType":"bytes32"}],"anonymous":false},{"type":"event","name":"OrderExpiryTimeUpdated","inputs":[{"name":"oldTime","type":"uint256","indexed":false,"internalType":"uint256"},{"name":"newTime","type":"uint256","indexed":false,"internalType":"uint256"}],"anonymous":false},{"type":"event","name":"OrderMatched","inputs":[{"name":"dscOrderId","type":"uint256","indexed":true,"internalType":"uint256"},{"name":"bscOrderId","type":"uint256","indexed":true,"internalType":"uint256"},{"name":"seller","type":"address","indexed":true,"internalType":"address"},{"name":"buyer","type":"address","indexed":false,"internalType":"address"},{"name":"amount","type":"uint256","indexed":false,"internalType":"uint256"}],"anonymous":false},{"type":"event","name":"OrderRefunded","inputs":[{"name":"orderId","type":"uint256","indexed":true,"internalType":"uint256"},{"name":"seller","type":"address","indexed":true,"internalType":"address"},{"name":"amount","type":"uint256","indexed":false,"internalType":"uint256"}],"anonymous":false},{"type":"event","name":"OwnershipTransferStarted","inputs":[{"name":"previousOwner","type":"address","indexed":true,"internalType":"address"},{"name":"newOwner","type":"address","indexed":true,"internalType":"address"}],"anonymous":false},{"type":"event","name":"OwnershipTransferred","inputs":[{"name":"previousOwner","type":"address","indexed":true,"internalType":"address"},{"name":"newOwner","type":"address","indexed":true,"internalType":"address"}],"anonymous":false},{"type":"event","name":"Paused","inputs":[{"name":"account","type":"address","indexed":false,"internalType":"address"}],"anonymous":false},{"type":"event","name":"SellOrderCreated","inputs":[{"name":"orderId","type":"uint256","indexed":true,"internalType":"uint256"},{"name":"seller","type":"address","indexed":true,"internalType":"address"},{"name":"amount","type":"uint256","indexed":false,"internalType":"uint256"},{"name":"expiresAt","type":"uint256","indexed":false,"internalType":"uint256"}],"anonymous":false},{"type":"event","name":"Unpaused","inputs":[{"name":"account","type":"address","indexed":false,"internalType":"address"}],"anonymous":false},{"type":"error","name":"AmountTooLarge","inputs":[{"name":"amount","type":"uint256","internalType":"uint256"},{"name":"maximum","type":"uint256","internalType":"uint256"}]},{"type":"error","name":"AmountTooSmall","inputs":[{"name":"amount","type":"uint256","internalType":"uint256"},{"name":"minimum","type":"uint256","internalType":"uint256"}]},{"type":"error","name":"BridgeRelayerChangeNotReady","inputs":[{"name":"readyTime","type":"uint256","internalType":"uint256"}]},{"type":"error","name":"BridgeRelayerChangePending","inputs":[]},{"type":"error","name":"BscOrderAlreadyMatched","inputs":[{"name":"bscOrderId","type":"uint256","internalType":"uint256"}]},{"type":"error","name":"BuyerMismatch","inputs":[{"name":"expected","type":"address","internalType":"address"},{"name":"actual","type":"address","internalType":"address"}]},{"type":"error","name":"EmergencyModeActive","inputs":[]},{"type":"error","name":"EmergencyModeNotActive","inputs":[]},{"type":"error","name":"EmergencyWithdrawTooEarly","inputs":[{"name":"allowedTime","type":"uint256","internalType":"uint256"}]},{"type":"error","name":"EnforcedPause","inputs":[]},{"type":"error","name":"ExpectedPause","inputs":[]},{"type":"error","name":"InsufficientContractBalance","inputs":[{"name":"required","type":"uint256","internalType":"uint256"},{"name":"available","type":"uint256","internalType":"uint256"}]},{"type":"error","name":"InvalidBscOrderId","inputs":[]},{"type":"error","name":"InvalidExpiryTime","inputs":[{"name":"time","type":"uint256","internalType":"uint256"}]},{"type":"error","name":"InvalidOrderStatus","inputs":[{"name":"orderId","type":"uint256","internalType":"uint256"},{"name":"current","type":"uint8","internalType":"enum P2PVaultDSC.OrderStatus"},{"name":"required","type":"uint8","internalType":"enum P2PVaultDSC.OrderStatus"}]},{"type":"error","name":"NoPendingBridgeRelayerChange","inputs":[]},{"type":"error","name":"NotAuthorized","inputs":[{"name":"caller","type":"address","internalType":"address"}]},{"type":"error","name":"NotOrderOwner","inputs":[{"name":"orderId","type":"uint256","internalType":"uint256"},{"name":"caller","type":"address","internalType":"address"},{"name":"owner","type":"address","internalType":"address"}]},{"type":"error","name":"OrderExpired","inputs":[{"name":"orderId","type":"uint256","internalType":"uint256"},{"name":"expiresAt","type":"uint256","internalType":"uint256"}]},{"type":"error","name":"OrderNotExpired","inputs":[{"name":"orderId","type":"uint256","internalType":"uint256"},{"name":"expiresAt","type":"uint256","internalType":"uint256"}]},{"type":"error","name":"OrderNotFound","inputs":[{"name":"orderId","type":"uint256","internalType":"uint256"}]},{"type":"error","name":"OwnableInvalidOwner","inputs":[{"name":"owner","type":"address","internalType":"address"}]},{"type":"error","name":"OwnableUnauthorizedAccount","inputs":[{"name":"account","type":"address","internalType":"address"}]},{"type":"error","name":"RateLimitExceeded","inputs":[{"name":"nextAllowedTime","type":"uint256","internalType":"uint256"}]},{"type":"error","name":"ReentrancyGuardReentrantCall","inputs":[]},{"type":"error","name":"SafeERC20FailedOperation","inputs":[{"name":"token","type":"address","internalType":"address"}]},{"type":"error","name":"TransferFailed","inputs":[]},{"type":"error","name":"ZeroAddress","inputs":[]},{"type":"error","name":"ZeroAmount","inputs":[]}],"bytecode":{"object":"0x60a060405262015180600355600a6010553480156200001d57600080fd5b5060405162002e0638038062002e068339810160408190526200004091620001a8565b60017f9b779b17422d0df92223018b32b4d1fa46e071723d6817e2486d003becc55f005533806200008b57604051631e4fbdf760e01b81526000600482015260240160405180910390fd5b620000968162000114565b50816001600160a01b038116620000c05760405163d92e233d60e01b815260040160405180910390fd5b816001600160a01b038116620000e95760405163d92e233d60e01b815260040160405180910390fd5b50506001600160a01b03918216608052600580546001600160a01b03191691909216179055620001e0565b600180546001600160a01b03191690556200012f8162000132565b50565b600080546001600160a01b03838116610100818102610100600160a81b0319851617855560405193049190911692909183917f8be0079c531659141344cd1fd0a4f28419497f9722a3daafe3b4186f6b6457e091a35050565b80516001600160a01b0381168114620001a357600080fd5b919050565b60008060408385031215620001bc57600080fd5b620001c7836200018b565b9150620001d7602084016200018b565b90509250929050565b608051612bbd6200024960003960008181610311015281816109da01528181610c5c01528181610f2401528181611121015281816113fa015281816119a001528181611af301528181611b7b01528181611bae01528181611deb01526122e50152612bbd6000f3fe608060405234801561001057600080fd5b50600436106102955760003560e01c8063869cdfc311610167578063b7ad2ddf116100ce578063d09ef24111610087578063d09ef2411461057c578063e30c39781461061d578063e348c4c51461062e578063ec641a1d14610637578063ed8d6c8f1461062e578063f2fde38b1461065757600080fd5b8063b7ad2ddf14610515578063b8aeb2ec14610528578063b979c03b1461053b578063caf0d1d01461054e578063cea9d26f14610561578063d00960101461057457600080fd5b806399b20eaf1161012057806399b20eaf146104b85780639c3619cf146104c0578063a47b81d8146104d1578063ace8205b146104db578063ae36935d146104e3578063b1a244451461050c57600080fd5b8063869cdfc3146104355780638a4a3ecf146104445780638b024fbe146104575780638d0a5fbb146104775780638da5cb5b1461047f5780638e4fa1b21461049557600080fd5b8063594223b81161020b578063715018a6116101c4578063715018a6146103ed57806371a1c76d146103f557806379ba5097146104085780637be7bb2e146104105780637f6577b61461041a5780638456cb591461042d57600080fd5b8063594223b81461037d5780635c975abb146103905780635f15ff091461039b57806362cf1a0d146103be57806368c128c9146103d15780636ff1c9bc146103da57600080fd5b80632b83c8f51161025d5780632b83c8f5146103035780633028139f1461030c5780633c81c4b81461034b5780633f4ba83a1461035e57806340bf2aa414610366578063568914121461037457600080fd5b80630905f5601461029a5780630f164ae5146102bc5780631a46e42a146102d1578063236262c9146102e457806328dec416146102ec575b600080fd5b6008546102a79060ff1681565b60405190151581526020015b60405180910390f35b6102cf6102ca36600461283e565b61066a565b005b6102cf6102df366004612873565b6108a9565b6102cf610a5c565b6102f560035481565b6040519081526020016102b3565b6102f560105481565b6103337f000000000000000000000000000000000000000000000000000000000000000081565b6040516001600160a01b0390911681526020016102b3565b6102f5610359366004612873565b610b1a565b6102cf610faf565b6102f566038d7ea4c6800081565b6102f560045481565b6102f561038b36600461288c565b610fc1565b60005460ff166102a7565b6103ae6103a93660046128c1565b61148c565b6040516102b3949392919061291e565b6102cf6103cc36600461288c565b6117e0565b6102f560075481565b6102cf6103e83660046129a6565b611a3b565b6102cf611c2e565b6102cf610403366004612873565b611c40565b6102cf611e71565b6102f562093a8081565b600554610333906001600160a01b031681565b6102cf611eb2565b6102f5670de0b6b3a764000081565b6102cf610452366004612873565b611ec2565b6102f5610465366004612873565b6000908152600e602052604090205490565b6002546102f5565b60005461010090046001600160a01b0316610333565b6102a76104a3366004612873565b6000908152600d602052604090205460ff1690565b6102cf61206a565b6102f569d3c21bcecceda100000081565b6102f56202a30081565b6102cf6120cf565b6102f56104f13660046129a6565b6001600160a01b03166000908152600c602052604090205490565b6102f560095481565b600654610333906001600160a01b031681565b6102cf610536366004612873565b6120ee565b6102cf6105493660046129a6565b61216e565b6102cf61055c366004612873565b612237565b6102cf61056f3660046129c1565b612283565b6102cf6123e2565b61060761058a366004612873565b6000908152600a60205260409020805460018201546002830154600384015460048501546005909501546001600160a01b038086169760ff600160a01b8804811698600160a81b90980416966001600160601b0387169665ffffffffffff600160601b8204811697600160901b9092048116969490911694911691565b6040516102b39a99989796959493929190612a17565b6001546001600160a01b0316610333565b6102f5610e1081565b61064a6106453660046129a6565b612439565b6040516102b39190612a8b565b6102cf6106653660046129a6565b6124a5565b6005546001600160a01b0316331461069c57604051634a0bfec160e01b81523360048201526024015b60405180910390fd5b806001600160a01b0381166106c45760405163d92e233d60e01b815260040160405180910390fd5b6000848152600a60205260408120908154600160a01b900460ff1660068111156106f0576106f06129ed565b03610711576040516313a42eb760e21b815260048101869052602401610693565b60018154600160a01b900460ff166006811115610730576107306129ed565b1461076157805460405163fad5e53f60e01b8152610693918791600160a01b90910460ff1690600190600401612a9e565b6001810154600160901b900465ffffffffffff164211156107b2576001810154604051634b2d84db60e01b815260048101879052600160901b90910465ffffffffffff166024820152604401610693565b836000036107d2576040516205312760e51b815260040160405180910390fd5b8054600160a11b60ff60a01b199091161781556002810180546001600160a01b038581166001600160a01b031990921682179092556003830186905560048301805465ffffffffffff421665ffffffffffff199091161790556000868152600d60209081526040808320805460ff19166001908117909155600e8352928190208a905585549286015481519485526001600160601b031691840191909152921691869188917f42737aca42e47e7009538e7be820dd9de822eea0f52e854faa25da76a636d6ac910160405180910390a45050505050565b6108b161251c565b6000818152600a60205260408120908154600160a01b900460ff1660068111156108dd576108dd6129ed565b036108fe576040516313a42eb760e21b815260048101839052602401610693565b80546001600160a01b03163314610943578054604051630e32172960e41b8152600481018490523360248201526001600160a01b039091166044820152606401610693565b60018154600160a01b900460ff166006811115610962576109626129ed565b1461099357805460405163fad5e53f60e01b8152610693918491600160a01b90910460ff1690600190600401612a9e565b6001810154815460ff60a01b1916600160a21b178255336000818152600c6020526040902080546001600160601b03909316928390039055600480548390039055610a09907f00000000000000000000000000000000000000000000000000000000000000006001600160a01b03169083612538565b604051818152339084907fc4058ebc534b64ecb27b2d4eaa1904f98997ec18ebe6ada4117593dde89478cc9060200160405180910390a35050610a596001600080516020612b6883398151915255565b50565b610a6461256d565b6006546001600160a01b0316610a8d576040516331db6d8160e11b815260040160405180910390fd5b600754421015610ab657600754604051631af5dcd960e01b815260040161069391815260200190565b60058054600680546001600160a01b03198084166001600160a01b038381169182179096559116909155600060078190556040519390921692909183917f44193f4ab9c70ae39b438efa955b66a66520bed79eebf7aab85be33e7de03a899190a350565b6000610b2461251c565b610b2c6125a0565b60085460ff1615610b50576040516319e1bef560e01b815260040160405180910390fd5b8180600003610b7257604051631f2a200560e01b815260040160405180910390fd5b66038d7ea4c68000811015610ba957604051625a5b2760e31b81526004810182905266038d7ea4c680006024820152604401610693565b69d3c21bcecceda1000000811115610be757604051637f16270360e01b81526004810182905269d3c21bcecceda10000006024820152604401610693565b601054336000908152600f6020526040902054610c049190612add565b421015610c4457601054336000908152600f6020526040902054610c289190612add565b604051636b77444960e01b815260040161069391815260200190565b6040516370a0823160e01b81523360048201526000907f00000000000000000000000000000000000000000000000000000000000000006001600160a01b0316906370a0823190602401602060405180830381865afa158015610cab573d6000803e3d6000fd5b505050506040513d601f19601f82011682018060405250810190610ccf9190612af6565b905083811015610cfc5760405163b7ddd88b60e01b81526004810185905260248101829052604401610693565b336000908152600f6020526040812042905560028054909190610d1e90612b0f565b9190508190559250600060035442610d369190612add565b60408051610140810182523381526001602080830191825260008385018190526001600160601b038b1660608501524265ffffffffffff9081166080860152861660a085015260c0840181905260e0840181905261010084018190526101208401819052898152600a90915292909220815181546001600160a01b031981166001600160a01b039092169182178355935194955091939092909183916001600160a81b03191617600160a01b836006811115610df457610df46129ed565b021790555060408201518154829060ff60a81b1916600160a81b836001811115610e2057610e206129ed565b0217905550606082015160018281018054608086015160a08701516001600160601b039095166001600160901b031990921691909117600160601b65ffffffffffff928316021765ffffffffffff60901b1916600160901b9482169490940293909317905560c08401516002840180546001600160a01b0319166001600160a01b0392831617905560e085015160038501556101008501516004808601805465ffffffffffff1916929095169190911790935561012090940151600590930192909255336000818152600b602090815260408083208054968701815583528183209095018a9055828252600c905292909220805489019055805488019055610f4c917f0000000000000000000000000000000000000000000000000000000000000000169030886125c4565b6040805186815265ffffffffffff83166020820152339186917f80a49be05481ef1a555cd6ea5845b05ffa157f18a6e61d3030f9bc5d25f3294a910160405180910390a3505050610faa6001600080516020612b6883398151915255565b919050565b610fb761256d565b610fbf612600565b565b6000610fcb61251c565b610fd36125a0565b60085460ff1615610ff7576040516319e1bef560e01b815260040160405180910390fd5b826001600160a01b03811661101f5760405163d92e233d60e01b815260040160405180910390fd5b828060000361104157604051631f2a200560e01b815260040160405180910390fd5b66038d7ea4c6800081101561107857604051625a5b2760e31b81526004810182905266038d7ea4c680006024820152604401610693565b69d3c21bcecceda10000008111156110b657604051637f16270360e01b81526004810182905269d3c21bcecceda10000006024820152604401610693565b856000036110d6576040516205312760e51b815260040160405180910390fd5b6000868152600d602052604090205460ff16156111095760405163e21f072160e01b815260048101879052602401610693565b6040516370a0823160e01b81523360048201526000907f00000000000000000000000000000000000000000000000000000000000000006001600160a01b0316906370a0823190602401602060405180830381865afa158015611170573d6000803e3d6000fd5b505050506040513d601f19601f820116820180604052508101906111949190612af6565b9050848110156111c15760405163b7ddd88b60e01b81526004810186905260248101829052604401610693565b6002600081546111d090612b0f565b9182905550935060006111e5610e1042612add565b6000898152600d60209081526040808320805460ff19166001179055600e8252918290208890558151610140810190925233825291925090810160028152602001600181526001600160601b03881660208083019190915265ffffffffffff428116604080850182905291861660608501526001600160a01b03808d16608086015260a085018e905260c0850191909152600060e0909401849052898452600a835292208351815493166001600160a01b0319841681178255918401519092909183916001600160a81b03191617600160a01b8360068111156112ca576112ca6129ed565b021790555060408201518154829060ff60a81b1916600160a81b8360018111156112f6576112f66129ed565b0217905550606082015160018281018054608086015160a08701516001600160601b039095166001600160901b031990921691909117600160601b65ffffffffffff928316021765ffffffffffff60901b1916600160901b9482169490940293909317905560c08401516002840180546001600160a01b0319166001600160a01b0392831617905560e085015160038501556101008501516004808601805465ffffffffffff1916929095169190911790935561012090940151600590930192909255336000818152600b602090815260408083208054968701815583528183209095018b9055828252600c90529290922080548a019055805489019055611422917f0000000000000000000000000000000000000000000000000000000000000000169030896125c4565b604080516001600160a01b03891681526020810188905233918a9188917f3cb48881cbb47e06d7b78c9dc28abb8c95807a2bd9f3543fd0ad81b4d09d3ba1910160405180910390a4505050506114856001600080516020612b6883398151915255565b9392505050565b6060808080600060015b60025481111580156114b057506114ad8789612add565b82105b15611528576000818152600a6020526040902060018154600160a01b900460ff1660068111156114e2576114e26129ed565b14801561150257506001810154600160901b900465ffffffffffff164211155b15611515578261151181612b0f565b9350505b508061152081612b0f565b915050611496565b506000878211611539576000611543565b6115438883612b28565b9050868111156115505750855b8067ffffffffffffffff81111561156957611569612b3b565b604051908082528060200260200182016040528015611592578160200160208202803683370190505b5095508067ffffffffffffffff8111156115ae576115ae612b3b565b6040519080825280602002602001820160405280156115d7578160200160208202803683370190505b5094508067ffffffffffffffff8111156115f3576115f3612b3b565b60405190808252806020026020018201604052801561161c578160200160208202803683370190505b5093508067ffffffffffffffff81111561163857611638612b3b565b604051908082528060200260200182016040528015611661578160200160208202803683370190505b50925060008060015b600254811115801561167b57508383105b156117d2576000818152600a6020526040902060018154600160a01b900460ff1660068111156116ad576116ad6129ed565b1480156116cd57506001810154600160901b900465ffffffffffff164211155b156117bf578b8310156116ec57826116e481612b0f565b9350506117bf565b818a85815181106116ff576116ff612b51565b6020908102919091010152805489516001600160a01b03909116908a908690811061172c5761172c612b51565b6001600160a01b0390921660209283029190910190910152600181015488516001600160601b039091169089908690811061176957611769612b51565b6020026020010181815250508060010160129054906101000a900465ffffffffffff1665ffffffffffff168785815181106117a6576117a6612b51565b6020908102919091010152836117bb81612b0f565b9450505b50806117ca81612b0f565b91505061166a565b505050505092959194509250565b6005546001600160a01b0316331461180d57604051634a0bfec160e01b8152336004820152602401610693565b61181561251c565b816001600160a01b03811661183d5760405163d92e233d60e01b815260040160405180910390fd5b6000848152600a60205260408120908154600160a01b900460ff166006811115611869576118696129ed565b0361188a576040516313a42eb760e21b815260048101869052602401610693565b60028154600160a01b900460ff1660068111156118a9576118a96129ed565b146118da57805460405163fad5e53f60e01b8152610693918791600160a01b90910460ff1690600290600401612a9e565b60028101546001600160a01b0385811691161461192357600281015460405163db04de8960e01b81526001600160a01b0391821660048201529085166024820152604401610693565b8261194157604051631f2a200560e01b815260040160405180910390fd5b805460018201546003830154600360a01b60ff60a01b198416178455600584018690556001600160a01b039283166000818152600c6020526040902080546001600160601b03909416938490039055600480548490039055926119c7907f0000000000000000000000000000000000000000000000000000000000000000168884612538565b604080516001600160a01b038581168252602082018590529181018890529088169082908a907f510dd01aea76f2ce7b638da6d5416c2b75b8b423abf06946766cd82c675021aa9060600160405180910390a45050505050611a366001600080516020612b6883398151915255565b505050565b611a4361256d565b611a4b61251c565b806001600160a01b038116611a735760405163d92e233d60e01b815260040160405180910390fd5b60085460ff16611a965760405163c5cd049360e01b815260040160405180910390fd5b6202a300600954611aa79190612add565b421015611adb576202a300600954611abf9190612add565b604051633339c9a760e01b815260040161069391815260200190565b6040516370a0823160e01b81523060048201526000907f00000000000000000000000000000000000000000000000000000000000000006001600160a01b0316906370a0823190602401602060405180830381865afa158015611b42573d6000803e3d6000fd5b505050506040513d601f19601f82011682018060405250810190611b669190612af6565b90508015611c1057611ba26001600160a01b037f0000000000000000000000000000000000000000000000000000000000000000168483612538565b826001600160a01b03167f00000000000000000000000000000000000000000000000000000000000000006001600160a01b03167f9495d03190a79a43e534c9e328ff322f6283261383f5f19c809564f6ad5a57b383604051611c0791815260200190565b60405180910390a35b50506000600455610a596001600080516020612b6883398151915255565b611c3661256d565b610fbf600061264d565b611c4861251c565b6000818152600a60205260408120908154600160a01b900460ff166006811115611c7457611c746129ed565b03611c95576040516313a42eb760e21b815260048101839052602401610693565b60018154600160a01b900460ff166006811115611cb457611cb46129ed565b14158015611cdf575060028154600160a01b900460ff166006811115611cdc57611cdc6129ed565b14155b15611d1057805460405163fad5e53f60e01b8152610693918491600160a01b90910460ff1690600190600401612a9e565b6001810154600160901b900465ffffffffffff164211611d60576001810154604051630212097560e21b815260048101849052600160901b90910465ffffffffffff166024820152604401610693565b805460018201546003830154600560a01b60ff60a01b1984161784556001600160a01b03909216916001600160601b03909116908015611dbc576000818152600d60209081526040808320805460ff19169055600e9091528120555b6001600160a01b038084166000908152600c6020526040902080548490039055600480548490039055611e12907f0000000000000000000000000000000000000000000000000000000000000000168484612538565b826001600160a01b0316857fe18debf292fbfc1f009a15d4e4932c1da2be34d7343f86f50989d09a04571e1b84604051611e4e91815260200190565b60405180910390a350505050610a596001600080516020612b6883398151915255565b60015433906001600160a01b03168114611ea95760405163118cdaa760e01b81526001600160a01b0382166004820152602401610693565b610a598161264d565b611eba61256d565b610fbf612666565b6005546001600160a01b03163314611eef57604051634a0bfec160e01b8152336004820152602401610693565b6000818152600a60205260408120908154600160a01b900460ff166006811115611f1b57611f1b6129ed565b03611f3c576040516313a42eb760e21b815260048101839052602401610693565b60028154600160a01b900460ff166006811115611f5b57611f5b6129ed565b14611f8c57805460405163fad5e53f60e01b8152610693918491600160a01b90910460ff1690600290600401612a9e565b600381015460018254600160a81b900460ff166001811115611fb057611fb06129ed565b03612004578015611fdd576000818152600d60209081526040808320805460ff19169055600e9091528120555b50600101805465ffffffffffff60901b1916600160901b4265ffffffffffff160217905550565b815460ff60a01b1916600160a01b1782556002820180546001600160a01b03191690556000600383015560048201805465ffffffffffff191690558015611a36576000908152600d60209081526040808320805460ff19169055600e9091528120555050565b61207261256d565b60085460ff166120955760405163c5cd049360e01b815260040160405180910390fd5b6008805460ff19169055600060098190556040517f70b9dcaceb756943ac1a4f48b8df9ea82fbb012b87e405cba4ed77d1ded0df419190a1565b6120d761256d565b600680546001600160a01b03191690556000600755565b6120f661256d565b610e10811080612108575062093a8081115b15612129576040516307dc928360e31b815260048101829052602401610693565b600380549082905560408051828152602081018490527f62a1bca69b22cde9653b0af9f58178fdcbb292ff41a3cf054839b8e13768bb43910160405180910390a15050565b61217661256d565b806001600160a01b03811661219e5760405163d92e233d60e01b815260040160405180910390fd5b6006546001600160a01b0316156121c85760405163a85c7c8760e01b815260040160405180910390fd5b600680546001600160a01b0319166001600160a01b0384161790556121f04262015180612add565b60078190556040519081526001600160a01b038316907f0eaaa1d802c9f647234d55e39326c1f9d345e9a82b575740126e83044e60cdd49060200160405180910390a25050565b61223f61256d565b610e1081111561227e5760405162461bcd60e51b815260206004820152600a60248201526926b0bc1018903437bab960b11b6044820152606401610693565b601055565b61228b61256d565b61229361251c565b826001600160a01b0381166122bb5760405163d92e233d60e01b815260040160405180910390fd5b826001600160a01b0381166122e35760405163d92e233d60e01b815260040160405180910390fd5b7f00000000000000000000000000000000000000000000000000000000000000006001600160a01b0316856001600160a01b0316036123685760085460ff1661233f5760405163c5cd049360e01b815260040160405180910390fd5b6202a3006009546123509190612add565b421015612368576202a300600954611abf9190612add565b61237c6001600160a01b0386168585612538565b836001600160a01b0316856001600160a01b03167f9495d03190a79a43e534c9e328ff322f6283261383f5f19c809564f6ad5a57b3856040516123c191815260200190565b60405180910390a35050611a366001600080516020612b6883398151915255565b6123ea61256d565b6008805460ff1916600117905542600955612403612666565b6040514281527f5fa9abb83376468762d4533d9cd0a8f21edf0033fa06b47347578fb235a92edc906020015b60405180910390a1565b6001600160a01b0381166000908152600b602090815260409182902080548351818402810184019094528084526060939283018282801561249957602002820191906000526020600020905b815481526020019060010190808311612485575b50505050509050919050565b6124ad61256d565b600180546001600160a01b0383166001600160a01b031990911681179091556124e46000546001600160a01b036101009091041690565b6001600160a01b03167f38d16b8cac22d99fc7c124b9cd0de2d3fa1faef420bfe791d8c362d765e2270060405160405180910390a350565b6125246126a3565b6002600080516020612b6883398151915255565b61254583838360016126d3565b611a3657604051635274afe760e01b81526001600160a01b0384166004820152602401610693565b6000546001600160a01b03610100909104163314610fbf5760405163118cdaa760e01b8152336004820152602401610693565b60005460ff1615610fbf5760405163d93c066560e01b815260040160405180910390fd5b6125d2848484846001612739565b6125fa57604051635274afe760e01b81526001600160a01b0385166004820152602401610693565b50505050565b6126086127ab565b6000805460ff191690557f5db9ee0a495bf2e6ff9c91a7834c1ba4fdd244a5e8aa4e537bd38aeae4b073aa335b6040516001600160a01b03909116815260200161242f565b600180546001600160a01b0319169055610a59816127ce565b61266e6125a0565b6000805460ff191660011790557f62e78cea01bee320cd4e420270b5ea74000d11b0c9f74754ebdbfc544b05a2586126353390565b600080516020612b6883398151915254600203610fbf57604051633ee5aeb560e01b815260040160405180910390fd5b60405163a9059cbb60e01b60008181526001600160a01b038616600452602485905291602083604481808b5af19250600160005114831661272d578383151615612720573d6000823e3d81fd5b6000873b113d1516831692505b60405250949350505050565b6040516323b872dd60e01b60008181526001600160a01b038781166004528616602452604485905291602083606481808c5af19250600160005114831661279957838315161561278c573d6000823e3d81fd5b6000883b113d1516831692505b60405250600060605295945050505050565b60005460ff16610fbf57604051638dfc202b60e01b815260040160405180910390fd5b600080546001600160a01b03838116610100818102610100600160a81b0319851617855560405193049190911692909183917f8be0079c531659141344cd1fd0a4f28419497f9722a3daafe3b4186f6b6457e091a35050565b80356001600160a01b0381168114610faa57600080fd5b60008060006060848603121561285357600080fd5b833592506020840135915061286a60408501612827565b90509250925092565b60006020828403121561288557600080fd5b5035919050565b6000806000606084860312156128a157600080fd5b833592506128b160208501612827565b9150604084013590509250925092565b600080604083850312156128d457600080fd5b50508035926020909101359150565b600081518084526020808501945080840160005b83811015612913578151875295820195908201906001016128f7565b509495945050505050565b60808152600061293160808301876128e3565b82810360208481019190915286518083528782019282019060005b818110156129715784516001600160a01b03168352938301939183019160010161294c565b5050848103604086015261298581886128e3565b92505050828103606084015261299b81856128e3565b979650505050505050565b6000602082840312156129b857600080fd5b61148582612827565b6000806000606084860312156129d657600080fd5b6129df84612827565b92506128b160208501612827565b634e487b7160e01b600052602160045260246000fd5b60078110612a1357612a136129ed565b9052565b6001600160a01b038b81168252610140820190612a37602084018d612a03565b60028b10612a4757612a476129ed565b8a60408401528960608401528860808401528760a084015280871660c0840152508460e083015283610100830152826101208301529b9a5050505050505050505050565b60208152600061148560208301846128e3565b83815260608101612ab26020830185612a03565b612abf6040830184612a03565b949350505050565b634e487b7160e01b600052601160045260246000fd5b80820180821115612af057612af0612ac7565b92915050565b600060208284031215612b0857600080fd5b5051919050565b600060018201612b2157612b21612ac7565b5060010190565b81810381811115612af057612af0612ac7565b634e487b7160e01b600052604160045260246000fd5b634e487b7160e01b600052603260045260246000fdfe9b779b17422d0df92223018b32b4d1fa46e071723d6817e2486d003becc55f00a26469706673582212200116f8092faecc6447a5f96c7debd924559b8e0e6911be8c5cc80d6733170a3464736f6c63430008140033","linkReferences":{}},"methodIdentifiers":{"DEP20_USDT()":"3028139f","DIRECT_FILL_EXPIRY()":"e348c4c5","EMERGENCY_WITHDRAW_DELAY()":"a47b81d8","FIXED_PRICE()":"869cdfc3","MAX_EXPIRY_TIME()":"7be7bb2e","MAX_ORDER_AMOUNT()":"9c3619cf","MIN_EXPIRY_TIME()":"ed8d6c8f","MIN_ORDER_AMOUNT()":"40bf2aa4","acceptOwnership()":"79ba5097","activateEmergencyMode()":"d0096010","bridgeRelayer()":"7f6577b6","bridgeRelayerChangeTime()":"68c128c9","cancelBridgeRelayerChange()":"ace8205b","cancelSellOrder(uint256)":"1a46e42a","completeBridgeRelayerChange()":"236262c9","completeOrder(uint256,address,bytes32)":"62cf1a0d","createSellOrder(uint256)":"3c81c4b8","deactivateEmergencyMode()":"99b20eaf","emergencyMode()":"0905f560","emergencyModeActivatedAt()":"b1a24445","emergencyWithdraw(address)":"6ff1c9bc","fillBscBuyOrder(uint256,address,uint256)":"594223b8","getDscOrderForBscOrder(uint256)":"8b024fbe","getOpenSellOrders(uint256,uint256)":"5f15ff09","getOrder(uint256)":"d09ef241","getOrderCount()":"8d0a5fbb","getUserLockedAmount(address)":"ae36935d","getUserOrderIds(address)":"ec641a1d","initiateBridgeRelayerChange(address)":"b979c03b","isBscOrderMatched(uint256)":"8e4fa1b2","matchSellOrder(uint256,uint256,address)":"0f164ae5","minTimeBetweenOrders()":"2b83c8f5","orderExpiryTime()":"28dec416","owner()":"8da5cb5b","pause()":"8456cb59","paused()":"5c975abb","pendingBridgeRelayer()":"b7ad2ddf","pendingOwner()":"e30c3978","refundExpiredOrder(uint256)":"71a1c76d","renounceOwnership()":"715018a6","rescueTokens(address,address,uint256)":"cea9d26f","revertMatchedOrder(uint256)":"8a4a3ecf","setMinTimeBetweenOrders(uint256)":"caf0d1d0","setOrderExpiryTime(uint256)":"b8aeb2ec","totalLocked()":"56891412","transferOwnership(address)":"f2fde38b","unpause()":"3f4ba83a"},"id":43}